:100000000C94BC000C9403010C9403010C940301A8
:100010000C9403010C9403010C9403010C94030150
:100020000C9403010C9403010C9403010C94030140
:100030000C9403010C9403010C9403010C94030130
:100040000C9403010C946A0A0C94960A0C94C20A4C
:100050000C9403010C9403010C9403010C94030110
:100060000C9403010C94C9080C9403010C94030133
:100070000C9403010C9403010C9403010C940301F0
:100080000C9403010C9403010C9403010C940301E0
:100090000C94F3080C9403010C9403010C940301D9
:1000A0000C9403010C9403010C94EE0A0C941A0BAB
:1000B0000C94460B0C9403010C9403010C94030163
:1000C0000C9403010C9403010C9403010C940301A0
:1000D0000C9403010C9403010C9403010C94030190
:1000E0000C9403010C94C3060C9414010C94720339
:1000F0000C945A070C943D0E0C94E4160C94851441
:100100000C94D10D0C942E110C9419010C94D11651
:100110000C940E010C941E010C9460070C94AA021E
:100120000C942E0E464154414C204552524F523AA7
:10013000204241444953525F766563742063616C89
:100140006C65642C20756E70726F63657373656483
:1001500020496E746572727570742E0A53544F5034
:1001600020457865637574696F6E2E0A00000E0174
:10017000AA027203C3065A07832D80938B1284B799
:1001800080938C1214BE0FB6F894A89580916000ED
:10019000886180936000109260000FBE11241FBE22
:1001A000CFEFD1E2DEBFCDBF00E00CBF16E0A0E094
:1001B000B2E0E6EDF5E300E00BBF02C007900D9260
:1001C000A632B107D9F722E1A6E2B6E001C01D923E
:1001D000AB38B207E1F710E0CCEBD0E000E006C0AE
:1001E00021970109802FFE010E949317C73BD10779
:1001F00080E00807A9F70E9405010C94E91A0E9403
:1002000009010C94E91A0C943F150E94540C0C94AB
:10021000400E0E94D3010E945C02FDCF60E070E0BE
:1002200086E296E00C9462070E941A0380E090E058
:1002300008950E944F0380E090E00895CF92DF92EE
:10024000EF92FF920F931F93CF93DF93423008F406
:10025000A1C0FB0120813091C80C23134CC0CEEF0C
:10026000C40FD9F17B01F2E0EF0EF11C67E472E0FC
:1002700089EC9CE00E949A07D0E00C2F10E0680106
:1002800021E0C21AD1088D2F90E08C159D0594F4C1
:10029000F701E80FF91F608170E043E089EC9CE012
:1002A0000E94BC076FE472E089EC9CE00E949A0710
:1002B000DF5FE9CF0E0D1F1DE8012197688170E017
:1002C00043E089EC9CE0DF91CF911F910F91FF906B
:1002D000EF90DF90CF900C94080864E572E089EC11
:1002E0009CE0DF91CF911F910F91FF90EF90DF90F5
:1002F000CF900C949C0730910D0223133CC00FEF5C
:10030000040F7B018FEFE81AF80A67E472E089ECCA
:100310009CE00E949A0710E0C02FD0E02197812F27
:1003200090E08C179D0794F4F701E80FF91F6081A6
:1003300070E043E089EC9CE00E94BC076FE472E04F
:1003400089EC9CE00E949A071F5FE9CFCE0DDF1D6C
:10035000688170E043E089EC9CE00E94BC078881E2
:100360008093C90B843DB1F481E090E09093C80B79
:100370008093C70B0FC08057964061F080E796E0EE
:10038000DF91CF911F910F91FF90EF90DF90CF9071
:100390000C94DC02DF91CF911F910F91FF90EF90B1
:1003A000DF90CF900895CF92DF92EF92FF920F935C
:1003B0001F9360E070E0CB010E9420158093C80C71
:1003C00067E672E089EC9CE00E949A076091C80C95
:1003D00070E043E089EC9CE00E94080885E7C82EA5
:1003E00082E0D82E90E7E92E96E0F92E04E111E0A4
:1003F00028E030E046E060E872E085E499E00E94A1
:10040000A10E29E7C22E22E0D22E09E111E028E058
:1004100030E045E060E872E085EC96E00E94A10ED5
:1004200061E070E080E090E00E94320762E070E0FE
:1004300082E090E00E940D0762E070E080910A0285
:1004400090910B020E940D0761E070E0809108021C
:10045000909109020E940D0761E070E08091060210
:10046000909107020E940D0760E070E08091080201
:10047000909109020E941E0760E070E080910602E0
:10048000909107020E941E0740E855E260E070E08C
:1004900089EC9CE00E9466071092C80B1092C70B73
:1004A0006DE772E089EC9CE01F910F91FF90EF9057
:1004B000DF90CF900C949C07CF93DF9300D0CDB703
:1004C000DEB78091C70B9091C80B0197E9F561E009
:1004D00070E080910802909109020E941E0782E05C
:1004E00090E00E9424079093C60B8093C50B019760
:1004F00059F580910E0289838091C80C8A8380917E
:100500000C028B8343E0BE016F5F7F4F80E796E074
:100510000E94DC02892B31F06AE872E089EC9CE0F1
:100520000E949C0760E070E08091080290910902AF
:100530000E941E071092C80B1092C70B68EE73E062
:1005400080E090E00E9432070F900F900F90DF91B3
:10055000CF9108950F931F9360E070E089EC9CE0C9
:100560000E94620700E010E02EE131E040E050E040
:1005700064E070E080E796E00E94C1021F910F9155
:100580000895EF92FF920F931F93CF93DF93EC01A7
:1005900079010E947803F98AE88A1B8B0A8BFE0195
:1005A000EC5AFF4F10821F861E86DF91CF911F915C
:1005B0000F91FF90EF900895AF92BF92CF92DF928C
:1005C000EF92FF920F931F93CF93413438F5C42FCE
:1005D0006B018C017C018EE0E80EF11C61E070E0A3
:1005E000C7010E94610C5801E4E5AE0EB11CF50193
:1005F0008081882321F0C7010E94A60C0FC04C2FD8
:1006000050E0B601C80144960E94AA17F501C083C4
:10061000C7010E94A60C80E090E002C08FEF9FEF20
:10062000CF911F910F91FF90EF90DF90CF90BF90EF
:10063000AF900895EC018C01025F1F4F7C0184E5AF
:10064000E80EF11C5E01E4E1AE0EB11C61E070E069
:10065000C8010E94610CF701D080C8010E94A60C5D
:10066000DD20B1F04D2DB501CE010E94750461E091
:1006700070E0C8010E94610CF7011082C8010E945D
:10068000A60CEA89FB89309709F3CE011995DECFD4
:1006900064E670E080E090E00E943207D7CFCF930D
:1006A000DF93CDB7DEB7C054D1090FB6F894DEBFE3
:1006B0000FBECDBF8C0140E4BE016F5F7F4FC8010C
:1006C0000E94600697FDF7CFD8015096ED91FC91FE
:1006D0005197309781F3482FBE016F5F7F4FC8015C
:1006E0001995E9CF60E070E083E19DE00C9462072A
:1006F0000F931F93CF93DF93EC01CB018A01798392
:10070000688361E070E00E940D071F830E83C801BB
:100710000E947E0B81E090E09D878C87DF91CF91D6
:100720001F910F910895CF93DF93EC010E94500722
:100730006A837B838C839D83DF91CF910895CF92D1
:10074000DF92EF92FF920F931F93CF93DF93EC0111
:10075000F62E0E94500728EB3BE0F29E6001F39ECC
:10076000D00C11240D2C000CEE08FF080A811B810F
:100770002C813D81C00ED11EE21EF31E6C157D053D
:100780008E059F0550F4A7019601261B370B480BD9
:10079000590BCA01B9010E944407CA82DB82EC826C
:1007A000FD82DF91CF911F910F91FF90EF90DF902D
:1007B000CF900895CF93DF93EC0160E070E08881E3
:1007C00099810E941E0765E0CE010E949F0361E0AF
:1007D00070E0888199810E941E0765E0CE01DF915B
:1007E000CF910C949F03CF93DF93EC0161E070E015
:1007F000888199810E941E0765E0CE010E949F03B7
:1008000060E070E0888199810E941E0765E0CE015A
:10081000DF91CF910C949F03CF92DF92EF92FF92E2
:100820000F931F93CF936C01C42F00E010E0E62ECE
:10083000F12CC701002E01C0880F0A94EAF787FF48
:1008400006C0CF5FC6010E94DA03C53021F4C6019D
:100850000E94F303C0E00F5F1F4F0830110549F7F6
:100860008C2FCF911F910F91FF90EF90DF90CF9041
:1008700008950F931F93CF93DF938C010E949303EE
:10088000C8E0D0E0C8010E94F303C8010E94DA0367
:100890002197C1F7DF91CF911F910F910895EF92AA
:1008A000FF920F931F93CF93DF938C01C0E0D0E0B2
:1008B0008EE7E82EF12CC7010C2E01C0880F0A9498
:1008C000EAF787FF04C0C8010E94DA0303C0C80129
:1008D0000E94F3032196C830D10569F7DF91CF91CB
:1008E0001F910F91FF90EF900895AF92BF92CF921A
:1008F000DF92EF92FF920F931F93CF93DF93EC0160
:100900007B01042F0E943904CE010E944F0467012D
:100910005701A00EB11C10E0CA14DB0449F0F60127
:1009200061916F01412FCE010E940C04182FF4CF6A
:10093000602FC7010E94C906082F412F692FCE01E1
:100940000E940C04482F602FCE010E940C04CE019F
:10095000DF91CF911F910F91FF90EF90DF90CF909B
:10096000BF90AF900C944F04CF92DF92EF92FF9222
:100970000F931F93CF93DF938C010E9493033AE56B
:10098000C32ED12CE12C40E8F42ECFEFDFE762E05C
:10099000F801868197810E940D0C8C179D070CF43D
:1009A000EC01E816F9060CF47C0161E0C8010E9434
:1009B0009F03F1E0CF1AD10851F7C7018C1B9D0BA3
:1009C000C2975CF0CE0DDF1DD7FD2196CE01959527
:1009D0008795F8019187808702C08FEF9FEFDF91A5
:1009E000CF911F910F91FF90EF90DF90CF900895DE
:1009F000CF93DF93EC0162E08E819F810E940D0C0A
:100A000028853985E0915D0D8217930764F481E0B4
:100A10008E0F80935D0DF0E0E25AF24F8FE58083F8
:100A200080E090E00BC081E08E0F80935D0DF0E0E0
:100A3000E25AF24F8DE2808381E090E0DF91CF9126
:100A40000895AF92BF92CF92DF92EF92FF920F93F1
:100A50001F93CF93DF93EC010E94F8046C0180EFA9
:100A6000E82EF12C00E010E0CE010E94F8045C01B9
:100A70008C159D0519F40F5F1F4F0CC00830110530
:100A80003CF065E0CE010E949F0380E090E00DC045
:100A900000E010E061E0CE010E949F0381E0E81ACF
:100AA000F108650109F78FEF9FEFDF91CF911F915B
:100AB0000F91FF90EF90DF90CF90BF90AF9008958F
:100AC000CF92DF92EF92FF920F931F93CF93DF931A
:100AD0008C01C5E0D0E0E12CF12CC8010E94F804A3
:100AE000E80EF91E61E0C8010E949F032197A9F753
:100AF00085E0C82ED12CC0E0D0E0C8010E94F804E7
:100B0000C80FD91F61E0C8010E949F0381E0C81A85
:100B1000D10899F783E0E816F1042CF423976CF4DC
:100B20008FEF9FEF0CC081E090E0239714F480E0FA
:100B300090E091958195910902C081E090E0DF916C
:100B4000CF911F910F91FF90EF90DF90CF9008957C
:100B5000CF93DF93EC01CE010E9460059C012F5FD3
:100B60003F4F22303105B8F7DF91CF9108950F93B1
:100B70001F93CF93DF93EC010E94A8058F3F2FEFC7
:100B80009207D9F006E010E0CE010E9460058F3F89
:100B90002FEF920791F0892BA9F301501109A1F7CA
:100BA000CE010E94600521E030E0892B11F420E0A5
:100BB00030E088279927821B930BDF91CF911F91FB
:100BC0000F910895CF92DF92EF92FF920F931F93B0
:100BD000CF93DF93EC017B01FB01108200E010E07A
:100BE00080E8C82ED12C8A859B850597A4F0CE017C
:100BF0000E9460058F3FFFEF9F0789F1892B19F451
:100C00001B861A8608C0CE010E946005892B29F533
:100C100081E090E024C0CE010E946005009799F029
:100C20000197D9F48A859B8501969B878A87F7016E
:100C30002081C601002E02C0959587950A94E2F79F
:100C4000822B808302C01B861A860F5F1F4F0830DD
:100C5000110549F680E090E002C08FEF9FEFDF9131
:100C6000CF911F910F91FF90EF90DF90CF9008955B
:100C7000EF92FF920F931F93CF93DF937C01042F8A
:100C8000FC0113861286EB0110E0101781F0BE0103
:100C9000C7010E94E2058F3FFFEF9F0751F00197C8
:100CA00019F4812F90E005C01F5F2196EECF8FEFE2
:100CB0009FEFDF91CF911F910F91FF90EF900895DB
:100CC000FF920F931F93CF93DF93EC018B01F42ED0
:100CD00010925D0D8C859D85892B09F1CE010E94B6
:100CE000B404019639F4E0915D0DF0E0E25AF24F60
:100CF00010822DC0CE010E9421058F3F4FEF940737
:100D000039F0CE010E94B7058F3F2FEF920739F4DB
:100D1000E0915D0DF0E0E25AF24F10822EC04F2DAF
:100D2000B801CE010E94380621E030E08F3F4FEF3E
:100D3000940711F020E030E03D872C87E0915D0DB5
:100D4000F0E0E25AF24F1082823091051CF48FEFEE
:100D50009FEF13C0EC0122976C2FC8010E94C906B7
:100D6000F801EC0FFD1F208130E0322F2227418156
:100D7000242B8217930759F7CE01DF91CF911F9152
:100D80000F91FF90089560E070E08EE59EE00C9476
:100D90006207482FDC0180E090E02A2F241B2617F1
:100DA00078F42D91E92FFF27E227EE0FFF1FE3577D
:100DB000FD4F20813181982F882782279327EDCFFF
:100DC0000895CF92DF92EF92FF92C0907312D0906D
:100DD0007412E0907512F090761280E090E00E941C
:100DE0005A0ABC018091731290917412A0917512ED
:100DF000B0917612C816D906EA06FB0631F7CB0188
:100E0000A0E0B0E0BC01CD016C297D298E299F298D
:100E1000FF90EF90DF90CF9008956115710529F054
:100E20006230710521F462E003C060E001C063E05C
:100E3000FC01E357FB4F80810C942B0983579B4F98
:100E4000FC0180810C94990983579B4FFC018081A0
:100E50000E94600921E030E0892B11F420E030E0AD
:100E6000C90108959B01AC01A8EEB3E00E94881768
:100E700022E096958795779567952A95D1F720E09A
:100E800030E0A9010C94B41422E0969587957795EB
:100E900067952A95D1F720E030E0A9010C94B414AD
:100EA0000E94E10622E0660F771F881F991F2A958E
:100EB000D1F7089560E070E088EA9EE00C94620744
:100EC0000C94F30DFC017183608308950F931F93BD
:100ED000FC01EE5BFF4F9C012E5F3F4F318320836F
:100EE00020E430E033832283158214821782168235
:100EF0008F0120E637E0FC01808191810E9460082B
:100F00001F910F9108950F931F93CF93DF938C013F
:100F1000EB01CB010E94B317AC01BE01F801808147
:100F200091810E94B008CE01DF91CF911F910F9166
:100F30000C94B3170C9483070F931F93CF93DF93F5
:100F4000EC010E9483078C0163ED74E0CE010E94E6
:100F50008307C8010296DF91CF911F910F910895E9
:100F6000CF93DF93EA01FC01808191810E94B00858
:100F7000CE01DF91CF910895EF92FF920F931F93CF
:100F8000CF93DF93CDB7DEB7C054D1090FB6F89435
:100F9000DEBF0FBECDBF7C01423049F0433061F06F
:100FA000413031F57F936F9386ED94E009C07F93D4
:100FB0006F9389ED94E004C07F936F938CED94E080
:100FC0009F938F93CE0101969F938F930E94001859
:100FD0008C010F900F900F900F900F900F90AC011D
:100FE000BE016F5F7F4FC7010E94B007C80102C0FA
:100FF00080E090E0C05CDF4F0FB6F894DEBF0FBE1C
:10100000CDBFDF91CF911F910F91FF90EF90089589
:101010000F931F93CF93DF93EC010E94BC078C01C9
:1010200063ED74E0CE010E948307C8010296DF9150
:10103000CF911F910F9108950FB6802DF89480786D
:1010400090E0089578940FB6802D807890E0089510
:10105000FF920F93F82E0FB7087FF02AFFBE0F9173
:10106000FF9008958091F20E90E0089521E0209382
:10107000F20EFC01EE0FFF1FEC51FB4F0190F081CF
:10108000E02D6681880F991F880F991FDC01AD50F4
:10109000B14FED91FC91119712968D919C91139700
:1010A00019958091670F9091680F892B31F00E94FC
:1010B000640E1092F20E0E943A161092F20E0895EB
:1010C000EF92FF920F931F93CF93DF9379018230BA
:1010D0009105E8F5FC01EE0FFF1FEE0FFF1FED502D
:1010E000F14FF182E08213830283880F991FFC0184
:1010F000EC51FB4FC081D1811982188286E08A832E
:10110000DB01CA0180589B47A14EBF4FE3E0880F27
:10111000991FAA1FBB1FEA95D1F79A01AB01F4E012
:10112000220F331F441F551FFA95D1F7BC01CD0183
:101130000E946617215031093D832C83EF2811F05E
:1011400088E901C088E0898380E090E002C08FEFE9
:101150009FEFDF91CF911F910F91FF90EF90089536
:10116000CF93DF93FB01460F571F880F991FDC01B8
:10117000AC51BB4FE417F50749F0CD91DC911197C5
:10118000888185FFFDCF81918E83F4CFDF91CF9150
:1011900008951F920F920FB60F9211240BB60F9263
:1011A0002F933F934F935F936F937F938F939F936F
:1011B000AF93BF93EF93FF9380E090E00E943608D7
:1011C000FF91EF91BF91AF919F918F917F916F911F
:1011D0005F914F913F912F910F900BBE0F900FBEDB
:1011E0000F901F9018951F920F920FB60F92112417
:1011F0000BB60F922F933F934F935F936F937F9311
:101200008F939F93AF93BF93EF93FF9381E090E011
:101210000E943608FF91EF91BF91AF919F918F91FE
:101220007F916F915F914F913F912F910F900BBEE6
:101230000F900FBE0F901F901895282F22952F709A
:1012400033E0239FC0011124273010F482960895C3
:1012500083519F4F0895CF93DF93982F9F70C1E0E4
:10126000D0E001C0CC0F9A95EAF76230A9F0633064
:1012700069F0611120C00E941D09FC012291C095F6
:101280002C232083FC012081C22311C00E941D0950
:10129000FC018291C82B0BC00E941D09FC01229108
:1012A0003C2F309523232083FC012081C22BC08357
:1012B00080E090E002C08FEF9FEFDF91CF91089523
:1012C000CF93C82F0E941D090297FC012081CF7087
:1012D00081E090E002C0880F991FCA95E2F730E0E4
:1012E00082239323CF910895CF93C82F0E941D0985
:1012F000FC014081CF7021E030E001C0220FCA958F
:10130000EAF7242B2083CF910895CF93C82F0E9412
:101310001D09FC014081CF7021E030E002C0220FA6
:10132000331FCA95E2F72095309524232083CF916F
:101330000895672B11F00C9474090C94850921E031
:101340002093F20E2CE0AC01249FC001259F900D4C
:101350001124DC01A15FBD4F1296ED91FC91139712
:101360002081AB014F5F5F4F81E090E001C0880FAB
:101370004A95EAF78095822380831696ED91FC9139
:10138000179718968D919C91199719958091670FD1
:101390009091680F892B31F00E94640E1092F20E2A
:1013A0000E943A161092F20E08958F929F92AF9279
:1013B000BF92CF92DF92EF92FF920F931F93DC01C7
:1013C0000297D8F4E8EEF4E090E0C12C84E2D82E45
:1013D00084EFE82EF12C46015701019004C0B69429
:1013E000A794979487940A94D2F79F5F84169506E2
:1013F000A606B70629F0953071F78FEF9FEF1EC054
:101400008CE08A9FF0018B9FF00D1124E15FFD4F6E
:10141000A081B1811C9211961C92119712961C9278
:10142000129715961C921E92149737832683118764
:101430000087928711969C9380E090E01F910F9116
:10144000FF90EF90DF90CF90BF90AF909F908F90E4
:101450000895633071055CF52CE0289FF001299F09
:10146000F00D1124E15FFD4F80819181DB01149625
:10147000AA0FBB1FA80FB91F11965C934E93A481AE
:10148000B5812C916F5F7F4F81E090E001C0880FA4
:101490006A95EAF7982F909592239C930280F381A6
:1014A000E02D9081892B808381E090E008958FEF7B
:1014B0009FEF08952CE0AC01249FC001259F900D63
:1014C0001124FC01E15FFD4F0190F081E02D84814A
:1014D000958108951F920F920FB60F9211240BB6AB
:1014E0000F922F933F934F935F936F937F938F93BD
:1014F0009F93AF93BF93EF93FF9360E070E080E022
:1015000090E00E949F09FF91EF91BF91AF919F9151
:101510008F917F916F915F914F913F912F910F909C
:101520000BBE0F900FBE0F901F9018951F920F9239
:101530000FB60F9211240BB60F922F933F934F9338
:101540005F936F937F938F939F93AF93BF93EF932B
:10155000FF9361E070E080E090E00E949F09FF91BE
:10156000EF91BF91AF919F918F917F916F915F911B
:101570004F913F912F910F900BBE0F900FBE0F9088
:101580001F9018951F920F920FB60F9211240BB651
:101590000F922F933F934F935F936F937F938F930C
:1015A0009F93AF93BF93EF93FF9362E070E080E06F
:1015B00090E00E949F09FF91EF91BF91AF919F91A1
:1015C0008F917F916F915F914F913F912F910F90EC
:1015D0000BBE0F900FBE0F901F9018951F920F9289
:1015E0000FB60F9211240BB60F922F933F934F9388
:1015F0005F936F937F938F939F93AF93BF93EF937B
:10160000FF9360E070E081E090E00E949F09FF910D
:10161000EF91BF91AF919F918F917F916F915F916A
:101620004F913F912F910F900BBE0F900FBE0F90D7
:101630001F9018951F920F920FB60F9211240BB6A0
:101640000F922F933F934F935F936F937F938F935B
:101650009F93AF93BF93EF93FF9361E070E081E0BE
:1016600090E00E949F09FF91EF91BF91AF919F91F0
:101670008F917F916F915F914F913F912F910F903B
:101680000BBE0F900FBE0F901F9018951F920F92D8
:101690000FB60F9211240BB60F922F933F934F93D7
:1016A0005F936F937F938F939F93AF93BF93EF93CA
:1016B000FF9362E070E081E090E00E949F09FF915B
:1016C000EF91BF91AF919F918F917F916F915F91BA
:1016D0004F913F912F910F900BBE0F900FBE0F9027
:1016E0001F90189561E070E08BEF9EE00E94610C06
:1016F000EAE7F0E080818068808308958F929F926E
:10170000AF92BF92CF92DF92EF92FF92CF93DF938F
:101710008031910508F074C0EC010E94720BC83052
:10172000D105A0F420917E0081E090E001C0880FF7
:10173000CA95EAF7922F982B90937E0090B38095EC
:10174000982390BB91B3892381BB18C020917D0061
:10175000289781E090E001C0880FCA95EAF7922FA0
:10176000982B90937D0090910701809598239093FA
:10177000070190910801892380930801C12CD12C85
:101780007601C394C1E0D0E0812C94E2992E94EFCD
:10179000A92EB12C9E010C2C02C0220F331F0A94DB
:1017A000E2F7032E000C440B550BC501B4010E9457
:1017B000661721343D404340510530F480917A0052
:1017C000C82AC0927A000BC03FEFC31AD30AE30ABB
:1017D000F30A88E0C816D104E104F104D9F6809137
:1017E0007C00806480937C0080917A008F77809366
:1017F0007A008BEF9EE00E94A60C80E090E002C091
:101800008FEF9FEFDF91CF91FF90EF90DF90CF9020
:10181000BF90AF909F908F900895CF93DF936230E9
:10182000F1F5EC010E94720B80917B00C830D1056C
:1018300058F4877F80937B0080917C00807F809329
:101840007C0080917C000BC0886080937B0080913D
:101850007C00807F80937C0080917C00C850C82BE6
:10186000C0937C0080917A00806480937A0080919C
:101870007A0086FDFCCFC0917800D09179008091EC
:101880007A00806180937A0080917A008F778093CC
:101890007A008BEF9EE00E94A60CCE0102C08FEF73
:1018A0009FEFDF91CF910895E1E6F0E080E880833B
:1018B00010820E94F6160E9431150E9406170C94A1
:1018C0002208EF92FF920F931F93CF93DF93EC01C7
:1018D0008B010E941C087C0188819981892B41F42D
:1018E0008FEF9FEF99838883C7010E9428081FC04C
:1018F000012B01F10091230F1091240F62E0C80128
:101900000E94260D88819981019641F4C8010696AE
:1019100099838883F8011782168204C0B801CE012A
:101920000E947F0EC7010E9428080E94CC1581E00A
:1019300090E005C0C7010E94280880E090E0DF9198
:10194000CF911F910F91FF90EF900895EF92FF922A
:101950000F931F93CF93DF938C010E941C087C018F
:10196000D801ED91FC91309739F0EF3FBFEFFB07C5
:1019700061F4F80111821082C701DF91CF911F91AC
:101980000F91FF90EF900C94280880819181D801ED
:101990008D939C93EF0126976BE0CE010E94260D5C
:1019A000F80180819181892B21F48FEF9FEF918342
:1019B0008083CB81D0E0C7010E942808CE01DF914F
:1019C000CF911F910F91FF90EF900C94B70D109253
:1019D000680F1092670FA091230FB091240F2091F0
:1019E000FD0E3091FE0E80E090E020FD04C03695A3
:1019F00027950196FACF880F991FFC01EF5FF04FF2
:101A00000190F081E02D0190F081E02D3697AE1726
:101A1000BF07C9F0109741F012968C9112978A3047
:101A200019F48BE012968C938AE0828384819581ED
:101A30009093220F8093210FF093240FE093230FB4
:101A400081E090E0089580E090E008950F931F9367
:101A5000CF93DF93FC0182816A30E0F18A3008F095
:101A600080C09F012A5F3F4F838190E0880F991FBC
:101A7000DC01AF5FB04FCD91DC911197209751F011
:101A800048815981578346830D90BC91A02D2D9399
:101A90003C9302C037832683DC01AF5FB04F2D93A8
:101AA0003C9381E090E0038002C0880F991F0A9464
:101AB000E2F7092E000CAA0BBB0B0091FD0E109152
:101AC000FE0E2091FF0E3091000F802B912BA22B48
:101AD000B32B3FC08A3008F444C0A381B0E0AA0F02
:101AE000BB1FAF5FB04FCD91DC911197209769F08C
:101AF00088819981C817D90719F41D921C9205C0D5
:101B0000DC018D919C91998388832381A22FB0E081
:101B1000AA0FBB1FAF5FB04F8D919C91892B09F528
:101B200081E090E002C0880F991F2A95E2F7809526
:101B30009095092E000CAA0BBB0B0091FD0E109185
:101B4000FE0E2091FF0E3091000F80239123A223DF
:101B5000B3238093FD0E9093FE0EA093FF0EB093DF
:101B6000000F6283DF91CF911F910F910895E09153
:101B7000230FF091240F22812A3028F0238130E0B6
:101B80008217930768F40E943208892B39F081E0AC
:101B900090E09093680F8093670F08950C94CC1594
:101BA00008950E941C08E091210FF091220FEE0F82
:101BB000FF1FEB5DF04F118210828091690F9091B1
:101BC0006A0F019790936A0F8093690F60E080918C
:101BD000230F9091240F0E94260D1092240F109233
:101BE000230F0E947F15FC014681578182819381DA
:101BF00048175907C9F424813581A081B181A20F0A
:101C0000B31F8C91DA011197B783A683AB2B19F41C
:101C10001582148207C02F5F3F4F358324834217FC
:101C20005307B1F390E002C08FEF9FEF44815581DD
:101C300026813781D9011196B783A683240F351FDA
:101C4000428153812417350710F0241B350B408146
:101C50005181FA01E20FF31F608308950E94CD16AF
:101C60008DEE94E09F938F930E94BC170E94090110
:101C70000F900F9080E090E008950E941F15FDCF17
:101C80000E941C08C0902702D0902802E12CF12C61
:101C90000DE31EE02CE030E04FE060E870E08BE602
:101CA0009FE00E94A10EC0902902D0902A020EE26D
:101CB0001EE02CE030E047E060E872E08BEE9FE051
:101CC0000E94A10E0E947F150E941C08E091230F24
:101CD000F091240F22812A3070F0E381F0E0EE0FC2
:101CE000FF1FEF5FF04FA081B181109721F02D9180
:101CF0003C91318320830E9428080C94CC15FB0171
:101D000022812A3030F061E770E084E395E00E94A0
:101D1000600F6381AF014A5F5F4FDC012D913C9101
:101D20002115310541F0D901169713967C9167175B
:101D300010F0C901F2CF37832683FC015183408321
:101D400008952F923F924F925F926F927F928F925F
:101D50009F92AF92BF92CF92DF92EF92FF920F933A
:101D60001F93CF93DF9300D01F92CDB7DEB74031E2
:101D70009CF54B013AE1831A9108DC01A80DB91DCD
:101D8000BC83AB83FC0123FF09C0AB81BC81EA1794
:101D9000FB0730F4F183E0833296F7CF91838083A1
:101DA0001601370158012A8349832B017C010E94C7
:101DB0001C086C01E7E2FFE001E010E081919191E5
:101DC000892B61F00F5F1F4F01321105B9F7C60172
:101DD0000E9428088FEB5CC084EE5AC0F801EE0F19
:101DE000FF1FEB5DF04F8B819C8191838083DC0131
:101DF00015961C930E9314979401A701B301C50186
:101E00000E944A15EB81FC8191838083F58AE48AE4
:101E1000518E408E378A268A298123831282178227
:101E200016821186108613861286158614861786EA
:101E300016868FEF9FEF918B808B138A128A809189
:101E4000690F90916A0F019690936A0F8093690FC2
:101E50003A8130FF06C061E08B819C810E94260D93
:101E600012C06BE08B819C810E94260DFA81F2FDED
:101E70000AC0C6010E9428082981822F220F990BCF
:101E80000E94B70D03C0C6010E942808C80101C006
:101E90009FEF0F900F900F900F90DF91CF911F91B8
:101EA0000F91FF90EF90DF90CF90BF90AF909F90F9
:101EB0008F907F906F905F904F903F902F900895FC
:101EC0007F936F939F938F9382E495E09F938F937B
:101ED0000E94BC176DE875E083E00E94700F0895C2
:101EE000EB0120916B1230916C12232B71F521E0E4
:101EF00030E030936C1220936B12833091F40EB665
:101F0000202D0DB6802D90E0922B9F938F938CE423
:101F100095E09F938F930E94BC170F900F900F90A6
:101F20000F90DF93CF9383E695E09F938F930E946A
:101F3000BC178FE795E09F938F930E94BC170F907B
:101F40000F900F900F900F900F900E941C080E940E
:101F50006F0F0E941C15CF92DF92EF92FF92C090FC
:101F60007312D0907412E0907512F090761280E0A7
:101F700090E00E945A0ABC018091731290917412F1
:101F8000A0917512B0917612C816D906EA06FB0622
:101F900031F7CB01A0E0B0E0BC01CD016C297D2977
:101FA0008E299F29FF90EF90DF90CF9008958F9218
:101FB0009F92AF92BF92CF92DF92EF92FF920F93D8
:101FC0001F93CF93DF938C01EB010E94AB0F4B016A
:101FD0005C01C0907712D0907812E0907912F09066
:101FE0007A120E94AB0F681579058A059B0568F384
:101FF000F8016083718382839383C882D982EA82E5
:10200000FB82DF91CF911F910F91FF90EF90DF90B6
:10201000CF90BF90AF909F908F90089520917B12AA
:1020200030917C12232B39F4AB0160E070E080E04A
:1020300090E00C94290A08950F931F93CF93DF9398
:10204000DC01E0916D12F0916E12CDE6D2E1309795
:1020500041F1068117812085318516964D915D915C
:102060006D917C911997041715072607370728F4F7
:10207000EF010190F081E02DEACF04171507260744
:10208000370779F4028113812481358112964D91AD
:102090005D916D917C911597401751076207730709
:1020A00038F71196FC93EE93B983A883DF91CF9113
:1020B0001F910F9108950F931F93CF93DF938091FA
:1020C000731290917412A0917512B09176121196BC
:1020D0008093731290937412A0937512B09376123A
:1020E0008091731290917412A0917512B091761232
:1020F000892B8A2B8B2B99F48091771290917812EF
:10210000A0917912B0917A120196A11DB11D809310
:10211000771290937812A0937912B0937A12E0918B
:102120006F12F0917012F0937212E093711210928C
:10213000701210926F12A0916D12B0916E12ED019B
:1021400080E090E0209781F14091771250917812D1
:102150006091791270917A120E811F8128853985DC
:10216000401751076207730738F4D0936E12C0937B
:102170006D120097F1F46DC00091731210917412FA
:1021800020917512309176124A815B816C817D813C
:1021900044275527401751076207730731F7CE01CF
:1021A0000990D881C02DCECF10926E1210926D1270
:1021B000E0CFEC0119821882309709F446C01097DD
:1021C00091F0028113812481358112964D915D91A8
:1021D0006D917C911597401751076207730718F4AA
:1021E0009A2F8B2F02C09E2F8F2FC92F282FD22FCF
:1021F0000190F081E02D0D90BC91A02D309719F445
:10220000B983A8831DC0109719F4F983E88318C017
:10221000028113812481358112964D915D916D91DA
:102220007C911597401751076207730718F43A2FEE
:102230002B2F02C03E2F2F2F38832983C32FD7CFB8
:10224000909371128093721204C0B0937212A09393
:102250007112DF91CF911F910F9108958F929F92EC
:10226000AF92BF92CF92DF92EF92FF9281E090E027
:1022700090937C1280937B128091711290917212D4
:10228000892B49F40E945B1080E090E00E945A0A7A
:102290000196D1F3B4C080E090E00E945A0A6C012C
:1022A000E12CF12C3AC0AA24BB2488159905AA0573
:1022B000BB0598F4E0917112F091721282809380C4
:1022C000A480B58080E090E00E945A0AA0E0B0E0CF
:1022D0008C159D05AE05BF0530F7A0917112B09128
:1022E00072128D919C91119790937212809371123A
:1022F00012961D921D921D921C92159716961D9274
:102300001D921D921C9219971A96ED91FC911B97A4
:102310001C968D919C911D971995E0917112F091E9
:102320007212309789F480E090E00E945A0AA0E08F
:10233000B0E04496A11DB11D8C159D05AE05BF05ED
:1023400098F50E945B1024C082809380A480B580A1
:1023500080E090E00E945A0AA0E0B0E08C159D0554
:10236000AE05BF0508F4A6CFB501A40166277727FF
:1023700084179507A607B70708F09CCF481B590B91
:102380006A0B7B0B443151056105710560F692CFF4
:1023900080E090E00E945A0AA0E0B0E0C816D9069A
:1023A000EA06FB06A8F32BC0E0917112F0917212BD
:1023B0003097B9F082809380A480B58084E1881A38
:1023C0009108A108B1080E94AB0FDC01CB01449633
:1023D000A11DB11D88169906AA06BB0608F49DCF5B
:1023E0002FC080E090E00E945A0A4C01A12CB12C31
:1023F0008C149D04AE04BF0430F40E945B10C12C09
:10240000D12C76018ACFD501C4014496A11DB11DFE
:10241000AA27BB2788159905AA05BB0560F480E0AB
:1024200090E00E945A0AA0E0B0E088159905AA053C
:10243000BB05A8F7E2CF88248A94982CA12CB12C54
:1024400010927C1210927B12C501B401FF90EF90A4
:10245000DF90CF90BF90AF909F908F900C940E1014
:10246000FC01A0917112B0917212A817B90719F06E
:10247000A1E7B2E11DC0ED91FC91F0937212E093DF
:102480007112309759F082819381A481B581BC018A
:10249000CD01645171098109910904C06FEF7FEF8B
:1024A00080E090E00C940E10E817F907A9F0DC0129
:1024B0008D919C9111970097B9F7AFE6B2E18D919C
:1024C0009C911197009729F0E817F90729F0DC0192
:1024D000F6CFADE6B2E109C0808191818D939C93E6
:1024E0000895E817F907C1F3DC018D919C911197CC
:1024F0000097B9F708950F931F9300E010E02EE2C4
:1025000031E140E950ED63E070E080E090E00E944E
:10251000D5096FEF7FEFCB011F910F910C940E1037
:102520004F925F926F927F928F929F92AF92BF92E3
:10253000CF92DF92EF92FF920F931F93CF93DF938F
:10254000EC016A017B010E94AB0F4B015C01198217
:102550001882D701C60188199909AA09BB09899768
:10256000A105B105F0F4EE24FF2480E090E00E9484
:102570005A0AA0E0B0E0C816D906EA06FB06A8F39E
:1025800080E090E00E945A0AA0E0B0E08C159D0522
:10259000AE05BF05A8F3EA85FB858C859D85199559
:1025A000A0C00E941C088C018A819B81AC81BD81E6
:1025B000892B8A2B8B2B09F090C08E819F81A88557
:1025C000B985892B8A2B8B2B09F087C0CA82DB82C5
:1025D000EC82FD82409077125090781260907912D0
:1025E00070907A12C701B60164517109810991098D
:1025F000681579058A059B0528F42FEF421A520ABF
:10260000620A720A4E825F826886798640907712EB
:10261000509078126090791270907A122E813F81DA
:1026200048855985421653066406750688F0209140
:1026300073123091741240917512509176122B01E1
:102640003C0144245524241535054605570521F041
:10265000CE010E941C103DC0AA24BB2486169706FA
:10266000A806B90618F4A1E7B2E121C0AFE6B2E1CD
:10267000ED91FC911197309759F04281538164811B
:102680007581C416D506E606F70610F0DF01F0CF17
:10269000F983E883CD93DC931CC082809380A4806F
:1026A000B580C814D904EA04FB0430F0DF01ED91D1
:1026B000FC911197309789F7F983E883CD93DC93E8
:1026C0002091711230917212C217D30711F40E9437
:1026D0000E10C8010E94280804C0CE010E943012CA
:1026E00075CF80E090E0DF91CF911F910F91FF9027
:1026F000EF90DF90CF90BF90AF909F908F907F90A2
:102700006F905F904F9008950F931F93CF93DF9337
:10271000EC010E941C088C018A819B81AC81BD81E7
:10272000892B8A2B8B2B79F48E819F81A885B98583
:10273000892B8A2B8B2B39F4C801DF91CF911F9104
:102740000F910C942808CE010E943012F5CF8F9281
:102750009F92AF92BF92CF92DF92EF92FF92CF9370
:10276000DF93FC0122853385232B09F447C06A01DE
:102770007B01EC010E948413F8E2CF16D104E1043E
:10278000F10438F580E090E00E945A0A4C01A12C37
:10279000B12C80E090E00E945A0AA0E0B0E08819D5
:1027A0009909AA09BB09AA27BB278C159D05AE0567
:1027B000BF0578F3EA85FB858C859D85DF91CF91F8
:1027C000FF90EF90DF90CF90BF90AF909F908F9051
:1027D00019940E94AB0FAB01BC014C0D5D1D6E1D29
:1027E0007F1DCE01DF91CF91FF90EF90DF90CF90D2
:1027F000BF90AF909F908F900C949012DF91CF91EB
:10280000FF90EF90DF90CF90BF90AF909F908F9010
:1028100008954F925F926F927F928F929F92AF92A4
:10282000BF92EF92FF920F931F93CF93DF93011507
:1028300011052105310581F4DF91CF911F910F9191
:10284000FF90EF90BF90AF909F908F907F906F9090
:102850005F904F900C94A713280139014A015B0146
:10286000EC010E941C087C018A819B81AC81BD81A6
:10287000892B8A2B8B2B09F044C08E819F81A885E0
:10288000B985892B8A2B8B2BE1F5BE016A5F7F4FBF
:10289000CE0102960E94D70F8A819B81AC81BD81B7
:1028A000880D991DAA1DBB1D8A839B83AC83BD83A4
:1028B0000E811F8128853985040D151D261D371DA4
:1028C00088159905AA05BB0520F40F5F1F4F2F4FF0
:1028D0003F4F0E831F8328873987CE010E941C102B
:1028E000C701DF91CF911F910F91FF90EF90BF90A3
:1028F000AF909F908F907F906F905F904F900C94CF
:102900002808CE010E943012C0CF0C94A60C8F92E2
:102910009F92AF92BF92CF92DF92EF92FF926B01A4
:102920007C0180E090E00E945A0A4C01A12CB12C5D
:10293000EE24FF2480E090E00E945A0AA0E0B0E07C
:1029400088199909AA09BB09AA27BB278C159D05D7
:10295000AE05BF0578F3FF90EF90DF90CF90BF906A
:10296000AF909F908F9008954F925F926F927F9259
:102970008F929F92AF92BF92EF92FF920F931F930D
:10298000CF93DF93CDB7DEB760970FB6F894DEBF75
:102990000FBECDBF4B015C0129013A010E943208F4
:1029A000892B79F045284628472831F068E370E004
:1029B0008FE995E00E94600FC501B4010E94871461
:1029C00026C0188A1F8685E894E19C878B877E0144
:1029D0008FE0E80EF11CFE86ED861F8218861986B0
:1029E0001A861B821C821D821E8261E070E0C70174
:1029F0000E94610C93018201B501A401CE010196F0
:102A00000E94091461E070E0C7010E94610C6096A9
:102A10000FB6F894DEBF0FBECDBFDF91CF911F91EF
:102A20000F91FF90EF90BF90AF909F908F907F900D
:102A30006F905F904F9008950E941C08FFCF0895FB
:102A4000CF93DF931F92CDB7DEB721E030E0AE0128
:102A50004F5F5F4F0E949C1689810F90DF91CF914D
:102A60000895A8950FB6F894A895809160008861A4
:102A700080936000109260000FBE0C944D171F925F
:102A80000F920FB60F9211245F9A64E271E080E01A
:102A90000E94700F240F351FF90131974FEA4083D0
:102AA00031974EEF408341ED5DE0319740833197A0
:102AB000508331971082319780833197908331977B
:102AC000108231971082319780E88083319710828D
:102AD0003197108231971082C90183971292E817BB
:102AE000F907E1F7F901B4976083319770838AE1C0
:102AF00082938F5F8032E1F7C9018C9708950E941D
:102B0000E70C0E9422088DB79EB7209104023091F5
:102B10000502821B930B9093010280930002809127
:102B2000811290918212892B41F48091020290913E
:102B300003029093821280938112A091230FB0918F
:102B4000240FCD91CDBFDD91DEBFFF91EF91DF91DD
:102B5000CF91BF91AF919F918F917F916F915F9135
:102B60004F913F912F911F910F91FF90EF90DF9028
:102B7000CF90BF90AF909F908F907F906F905F901D
:102B80004F903F902F901F900F900CBE0F900BBE58
:102B90000F900FBE0F9008950E943208892B09F004
:102BA00062C00F920FB6F8940F920BB60F920CB64C
:102BB0000F921F9211242F923F924F925F926F9229
:102BC0007F928F929F92AF92BF92CF92DF92EF92BD
:102BD000FF920F931F932F933F934F935F936F93A6
:102BE0007F938F939F93AF93BF93CF93DF93EF9395
:102BF000FF93A091230FB091240F0DB60D920EB646
:102C00000D920E94E70CA091230FB091240FCD915B
:102C1000CDBFDD91DEBFFF91EF91DF91CF91BF91ED
:102C2000AF919F918F917F916F915F914F913F9164
:102C30002F911F910F91FF90EF90DF90CF90BF9059
:102C4000AF909F908F907F906F905F904F903F904C
:102C50002F901F900F900CBE0F900BBE0F900FBEC9
:102C60000F900895089581E090E09093680F80930D
:102C7000670F08950F920FB6F8940F920BB60F924C
:102C80000CB60F921F9211242F923F924F925F9297
:102C90006F927F928F929F92AF92BF92CF92DF926C
:102CA000EF92FF920F931F932F933F934F935F9356
:102CB0006F937F938F939F93AF93BF93CF93DF9344
:102CC000EF93FF93A091230FB091240F0DB60D92B7
:102CD0000EB60D920E94E70CA091230FB091240F25
:102CE000CD91CDBFDD91DEBFFF91EF91DF91CF910F
:102CF000BF91AF919F918F917F916F915F914F9114
:102D00003F912F911F910F91FF90EF90DF90CF9007
:102D1000BF90AF909F908F907F906F905F904F90FB
:102D20003F902F901F900F900CBE0F900BBE0F90F6
:102D30000FBE0F9018950895CF92DF92EF92FF92F9
:102D40006B017C01C20ED31EE11CF11CE1E0CE162A
:102D5000E0E1DE06E104F10438F4DA01A20FB31F6A
:102D6000FA01641B750B10C060E270E083EB95E024
:102D70000E94600FF999FECFCB018E0F9F1F92BD6D
:102D800081BDF89A80B58193EA17FB0799F7C901CD
:102D9000FF90EF90DF90CF9008950E940C170C9455
:102DA0007B12CF93DF931F92CDB7DEB761E070E067
:102DB000CE0101960E943D178981082E000C990BC7
:102DC0000F90DF91CF910895CF93DF931F92CDB7EE
:102DD000DEB7898361E070E0CE0101960E94401762
:102DE00080E090E00F90DF91CF9108950E942C1722
:102DF000E5E8F2E189E392E0938382838BE292E05B
:102E00009183808385ED95E00C94D01763E087E192
:102E10000E942B095F98089587ED95E09F938F930B
:102E20000E94BC170F900F9061E070E080E090E08E
:102E30000C941A17611571058105910521F461E063
:102E400070E080E090E060937D1270937E1280933A
:102E50007F129093801208950F931F9300E010E06B
:102E600020E030E040E855E260E070E080E090E093
:102E70000E9460081F910F91089583EC9FEF0895C1
:102E8000CF93DF93EB01AB01BC0180E090E00E94A7
:102E9000B008CE01DF91CF91089580E090E00C94CE
:102EA000551784B1876084B90895892B31F06DE29C
:102EB00070E087E096E00E94600F8091640084607B
:102EC0008093640080E090E00C945117A1E21A2EE8
:102ED000AA1BBB1BFD010DC0AA1FBB1FEE1FFF1FBE
:102EE000A217B307E407F50720F0A21BB30BE40B0E
:102EF000F50B661F771F881F991F1A9469F7609555
:102F00007095809590959B01AC01BD01CF0108950E
:102F10000E949B17A59F900DB49F900DA49F800DBC
:102F2000911D11240895EE0FFF1F881F8BBF07907E
:102F3000F691E02D1994A29FB001B39FC001A39F09
:102F4000700D811D1124911DB29F700D811D1124E2
:102F5000911D0895FB01DC0102C001900D924150CA
:102F60005040D8F70895FC0101900020E9F78095C2
:102F700090958E0F9F1F0895CF93DF93CDB7DEB747
:102F8000AE014A5F5F4FFA0161917191AF0180918B
:102F90008712909188120E942F18DF91CF91089587
:102FA0000F931F93CF93DF93E0918712F0918812D4
:102FB000238121FF1BC08C01D0E0C0E0F80181918A
:102FC0008F016091871270918812DB011896ED9144
:102FD000FC911997882331F01995892B79F3DFEF4C
:102FE000CFEFECCF8AE01995892B19F08FEF9FEF87
:102FF00002C08D2F9C2FDF91CF911F910F910895CB
:103000000F931F93CF93DF93CDB7DEB72E970FB6F5
:10301000F894DEBF0FBECDBF0E891F8986E08C837A
:103020001A8309838FEF9FE79E838D83AE01465EEF
:103030005F4F688D798DCE0101960E942F18EF8128
:10304000F885E00FF11F10822E960FB6F894DEBFC0
:103050000FBECDBFDF91CF911F910F9108952F9299
:103060003F924F925F926F927F928F929F92AF9218
:10307000BF92CF92DF92EF92FF920F931F93CF9365
:10308000DF93CDB7DEB72B970FB6F894DEBF0FBE38
:10309000CDBF6C017B018A01FC01178216828381FE
:1030A00081FFCCC1CE0101963C01F6019381F7016D
:1030B00093FD859193FF81917F01882309F4BAC123
:1030C000853239F493FD859193FF81917F0185329B
:1030D00029F4B60190E00E944F1AE7CF912C212CE1
:1030E000312CFFE1F315D8F08B3279F038F48032CF
:1030F00079F08332A1F4232D20611DC08D3261F05F
:10310000803369F4232D216016C0832D8260382E10
:10311000E32DE4603E2E2AC0F32DF8601DC037FC7D
:103120002DC020ED280F2A3040F08E32B9F436FC45
:1031300081C1232D2064322E19C036FE06C08AE0DC
:10314000989E200D1124922E11C0EAE02E9E200D93
:103150001124222EF32DF0623F2E08C08C3621F46C
:10316000832D8068382E02C0883641F4F70193FD24
:10317000859193FF81917F018111B3CF982F9F7D1E
:103180009554933028F40C5F1F4F9FE399830DC033
:10319000833631F0833771F0833509F059C021C08F
:1031A000F801808189830E5F1F4F88248394912CBE
:1031B000530113C02801F2E04F0E511CF801A0800A
:1031C000B18036FE03C0692D70E002C06FEF7FEF63
:1031D000C5010E94441A4C018201F32DFF773F2E56
:1031E00016C0280122E0420E511CF801A080B180D7
:1031F00036FE03C0692D70E002C06FEF7FEFC5019E
:103200000E94391A4C01F32DF0683F2E820133FCE5
:103210001BC0822D90E088169906B0F4B60180E2BA
:1032200090E00E944F1A2A94F4CFF50137FC859163
:1032300037FE81915F01B60190E00E944F1A211084
:103240002A9421E0821A91088114910471F7E8C050
:10325000843611F0893641F5F80137FE07C06081E8
:103260007181828193810C5F1F4F08C060817181E1
:10327000072E000C880B990B0E5F1F4FF32DFF7666
:103280003F2E97FF09C090958095709561957F4F6F
:103290008F4F9F4FF0683F2E2AE030E0A3010E943D
:1032A0008B1A882E861845C0853731F4232D2F7E42
:1032B000B22E2AE030E025C0932D997FB92E8F36AB
:1032C000C1F018F4883579F0B5C0803719F0883727
:1032D00021F0B0C0E92FE061BE2EB4FE0DC0FB2D81
:1032E000F460BF2E09C034FE0AC0292F2660B22E1A
:1032F00006C028E030E005C020E130E002C020E157
:1033000032E0F801B7FE07C060817181828193814C
:103310000C5F1F4F06C06081718180E090E00E5FFE
:103320001F4FA3010E948B1A882E8618FB2DFF7752
:103330003F2E36FE0DC0232D2E7FA22E891458F469
:1033400034FE0BC032FC09C0832D8E7EA82E05C032
:10335000B82CA32C03C0B82C01C0B92CA4FE0FC0FC
:10336000FE01E80DF11D8081803321F49A2D997EB4
:10337000A92E09C0A2FE06C0B394B39404C08A2D3E
:10338000867809F0B394A3FC11C0A0FE06C0B21465
:1033900088F4280C922C9B180EC0B21460F4B6016D
:1033A00080E290E00E944F1AB394F7CFB21418F461
:1033B0002B1802C0982C212CA4FE10C0B60180E36B
:1033C00090E00E944F1AA2FE17C0A1FC03C088E73C
:1033D00090E002C088E590E0B6010CC08A2D8678A6
:1033E00059F0A1FE02C08BE201C080E2A7FC8DE291
:1033F000B60190E00E944F1A891438F4B60180E3B8
:1034000090E00E944F1A9A94F7CF8A94F301E80D46
:10341000F11D8081B60190E00E944F1A8110F5CF16
:10342000222009F442CEB60180E290E00E944F1AB9
:103430002A94F6CFF6018681978102C08FEF9FEF25
:103440002B960FB6F894DEBF0FBECDBFDF91CF91A4
:103450001F910F91FF90EF90DF90CF90BF90AF90B2
:103460009F908F907F906F905F904F903F902F90A4
:103470000895FC010590615070400110D8F78095C7
:1034800090958E0F9F1F0895FC0161507040019030
:103490000110D8F7809590958E0F9F1F08950F9378
:1034A0001F93CF93DF93FB01238121FD03C08FEF97
:1034B0009FEF2CC022FF16C04681578124813581A1
:1034C0004217530744F4A081B1819D012F5F3F4F04
:1034D000318320838C93268137812F5F3F4F378341
:1034E000268314C08B01EC01FB010084F185E02DE3
:1034F0001995892BE1F6D80116968D919C91179715
:10350000019617969C938E931697CE01DF91CF91DB
:103510001F910F910895FA01AA27283051F1203107
:1035200081F1E8946F936E7F6E5F7F4F8F4F9F4F57
:10353000AF4FB1E03ED0B4E03CD0670F781F891F99
:103540009A1FA11D680F791F8A1F911DA11D6A0F67
:10355000711D811D911DA11D20D009F468943F911A
:103560002AE0269F11243019305D3193DEF6CF0119
:103570000895462F4770405D4193B3E00FD0C9F7DF
:10358000F6CF462F4F70405D4A3318F0495D31FD4C
:103590004052419302D0A9F7EACFB4E0A69597959F
:1035A000879577956795BA95C9F700976105710575
:1035B00008959B01AC010A2E0694579547953795BF
:1035C0002795BA95C9F7620F731F841F951FA01D19
:0635D0000895F894FFCFFE
:1035D60000008D122000090008000300F17EFF8024
:1035E600006F003600000000000000A000720039E5
:1035F600000000000000002A052F05000000010061
:103606000000000000D116000000000002000000CB
:1036160000E41600000000476F743A203078002C52
:1036260020307800476F743A20456D707479206DAC
:10363600657373616765004465766963652049440F
:103646003A203078007478310072783100736574EE
:103656007570282920646F6E65007478000000215B
:1036660010422063308440A550C660E77008812967
:10367600914AA16BB18CC1ADD1CEE1EFF1311210FF
:103686000273325222B5529442F772D662399318B7
:10369600837BB35AA3BDD39CC3FFF3DEE36224430B
:1036A6003420040114E664C774A44485546AA54B07
:1036B600B528850995EEE5CFF5ACC58DD55336729F
:1036C6002611163006D776F6669556B4465BB77A57
:1036D600A719973887DFF7FEE79DD7BCC7C448E52B
:1036E600588668A7784008611802282338CCC9EDA7
:1036F600D98EE9AFF9488969990AA92BB9F55AD43F
:103706004AB77A966A711A500A333A122AFDDBDCF6
:10371600CBBFFB9EEB799B588B3BBB1AABA66C874A
:103726007CE44CC55C222C033C600C411CAEED8F46
:10373600FDECCDCDDD2AAD0BBD688D499D977EB6DE
:103746006ED55EF44E133E322E511E700E9FFFBE96
:10375600EFDDDFFCCF1BBF3AAF599F788F8891A969
:1037660081CAB1EBA10CD12DC14EF16FE18010A140
:1037760000C230E3200450254046706760B9839844
:1037860093FBA3DAB33DC31CD37FE35EF3B1029090
:1037960012F322D2323542145277625672EAB5CB10
:1037A600A5A89589856EF54FE52CD50DC5E234C3E0
:1037B60024A01481046674476424540544DBA7FAE4
:1037C600B79987B8975FE77EF71DC73CD7D326F230
:1037D600369106B01657667676154634564CD96D30
:1037E600C90EF92FE9C899E9898AB9ABA944586580
:1037F6004806782768C018E1088238A3287DCB5C84
:10380600DB3FEB1EFBF98BD89BBBAB9ABB754A54CF
:103816005A376A167AF10AD01AB32A923A2EFD0F4F
:10382600ED6CDD4DCDAABD8BADE89DC98D267C071F
:103836006C645C454CA23C832CE01CC10C1FEF3E23
:10384600FF5DCF7CDF9BAFBABFD98FF89F176E366F
:103856007E554E745E932EB23ED10EF01E4041440C
:103866004565437374757614151617818071703328
:1038760032313000010203040506072726252423DA
:1038860022214037626160A7A6A5A4A3A2A1A01326
:103896001211105051525354555657909192939479
:1038A6009596970D0A00256F002569002578002555
:1038B6002E2A6600C000C800000306080A6D61696A
:1038C6006E28293A20546869732069732052494F3B
:1038D6005421202856657273696F6E3A2032303152
:1038E600372E31302D646576656C2D393037302DA5
:1038F60067373230646231290A0069646C65006D8D
:1039060061696E00636F72652F7468726561642EFB
:10391600630025733A2575203D3E2000537461638C
:103926006B20506F696E7465723A2030782530349A
:10393600780A002A2A2A2052494F54206B65726E53
:10394600656C2070616E69633A0A25730A0A002A5B
:103956002A2A2068616C7465642E0A0A0046414969
:103966004C454420415353455254494F4E2E007303
:1039760079732F7874696D65722F7874696D6572C5
:103986002E63006370752F61746D6567615F636F89
:103996006D6D6F6E2F7065726970682F65657072D8
:1039A6006F6D2E63000C0072616E646F6D3A204E6F
:1039B6004F205345454420415641494C41424C45D0
:1039C600210A007379732F72616E646F6D2F7261B5
:1039D6006E646F6D2E63006370752F61746D65671D
:1039E600615F636F6D6D6F6E2F7065726970682FA2
:0639F6007370692E6300EE
:040000030000020AED
:00000001FF
