:100000000C94BA000C9401010C9401010C940101B0
:100010000C9401010C9401010C9401010C94010158
:100020000C9401010C9401010C9401010C94010148
:100030000C9401010C9401010C9401010C94010138
:100040000C9401010C948C0B0C94B80B0C94E40BE5
:100050000C9401010C9401010C9401010C94010118
:100060000C9401010C94EB090C9401010C94010116
:100070000C9401010C9401010C9401010C940101F8
:100080000C9401010C9401010C9401010C940101E8
:100090000C94150A0C9401010C9401010C940101BB
:1000A0000C9401010C9401010C94100C0C943C0C68
:1000B0000C94680C0C9401010C9401010C94010146
:1000C0000C9401010C9401010C9401010C940101A8
:1000D0000C9401010C9401010C9401010C94010198
:1000E0000C9401010C9412010C94E9070C94B517BF
:1000F0000C9452070C9404040C94130F0C94C8171E
:100100000C9417010C940C010C941C010C946915AF
:100110000C94F10E0C941E030C94220F0C941212EA
:10012000464154414C204552524F523A204241449C
:100130004953525F766563742063616C6C65642C0F
:1001400020756E70726F63657373656420496E7499
:100150006572727570742E0A53544F50204578653D
:10016000637574696F6E2E0A00000C011E0304048F
:100170005207E907832D8093CF2184B78093D02144
:1001800014BE0FB6F894A8958091600088618093A2
:100190006000109260000FBE11241FBECFEFD1E2AD
:1001A000DEBFCDBF00E00CBF16E0A0E0B2E0EEE5A0
:1001B000F7E300E00BBF02C007900D92A237B10732
:1001C000D9F721E2A2E7B6E001C01D92AF3CB20729
:1001D000E1F710E0CAEBD0E000E006C0219701098A
:1001E000802FFE010E945718C53BD10780E0080709
:1001F000A9F70E9403010C94AD1B0E9407010C9407
:10020000AD1B0C9425160E94760D0C94250F0E94B0
:10021000B5010E948E02FDCF60E070E082E796E0BB
:100220000C94EF070E94AC0380E090E008950E94D8
:10023000E10380E090E00895CF92DF92EF92FF9289
:100240000F931F93CF93DF93423008F485C0142F90
:10025000EB017C0198818091101C98134AC01250C8
:10026000D1F17B0182E0E80EF11C6EE372E081E1E6
:100270009CE10E940A0800E0C12FD0E06E0181E0FD
:10028000C81AD108802F90E08C159D0594F4F701D1
:10029000E80FF91F608170E043E081E19CE10E947A
:1002A000160966E472E081E19CE10E940A080F5F92
:1002B000E9CFCE0DDF1D2197688170E043E081E139
:1002C0009CE1DF91CF911F910F91FF90EF90DF9014
:1002D000CF900C9424096BE472E081E19CE1DF9102
:1002E000CF911F910F91FF90EF90DF90CF900C94E2
:1002F0000C088BEBE81687E0F80661F4412FBE018D
:1003000086E697E00E946E0381E1E81687E0F80632
:1003100051F414C08BEB97E00E946E0386E6E8165A
:1003200087E0F80659F7412FBE0181E197E00E946E
:100330006E038CEBE81686E0F80671F0412FBE01E3
:100340008CEB96E0DF91CF911F910F91FF90EF9092
:10035000DF90CF900C946E03DF91CF911F910F919E
:10036000FF90EF90DF90CF900895CF92DF92EF92C1
:10037000FF920F931F9360E070E0CB010E94041680
:100380008093101C6EE572E081E19CE10E940A08F6
:100390006091101C70E043E081E19CE10E9424091F
:1003A0008CE6C82E82E0D82E9BEBE92E97E0F92E42
:1003B00002E111E028E030E046E060E872E080E928
:1003C00099E10E94860F20E7C22E22E0D22E07E19B
:1003D00011E028E030E045E060E872E080E197E17C
:1003E0000E94860F61E070E080E090E00E94C1070B
:1003F00034E7C32E32E0D32E46E6E42E47E0F42E57
:1004000002E111E028E030E046E060E872E080E9D7
:1004100094E10E94860F58E7C52E52E0D52E07E1E1
:1004200011E028E030E045E060E872E080E192E130
:100430000E94860F61E070E080E090E00E94C107BA
:100440006CE7C62E62E0D62E71E1E72E77E0F72E3C
:1004500002E111E028E030E046E060E872E080E987
:100460009FE00E94860FE0E8CE2EE2E0DE2E07E15C
:1004700011E028E030E045E060E872E080E19DE0D6
:100480000E94860F61E070E080E090E00E94C1076A
:10049000F4E8CF2EF2E0DF2EACEBEA2EA6E0FA2E47
:1004A00002E111E028E030E046E060E872E080E937
:1004B0009AE00E94860FB8E8CB2EB2E0DB2E07E16F
:1004C00011E028E030E045E060E872E080E198E08B
:1004D0000E94860F62E070E088E090E00E949C0736
:1004E00062E070E089E090E00E949C0762E070E0CA
:1004F0008AE090E00E949C0762E070E08BE090E070
:100500000E949C076CE872E081E19CE11F910F91D1
:10051000FF90EF90DF90CF900C940C08CF92DF9279
:10052000EF92FF920F931F93CF93DF9300D0CDB73D
:10053000DEB707EF12E083EFE82E82E0F82EF80135
:10054000D080C1800E5F1F4F8D2D9C2D0E94B30760
:10055000892B09F05FC069E972E081E19CE10E94AA
:100560000A086D2D7C2D81E19CE10E9438096EE91D
:1005700072E081E19CE10E940C08F701808189838F
:100580008091101C8A83DB8243E0BE016F5F7F4F46
:100590008BEB97E00E946E03892B31F067EA72E0E3
:1005A00081E19CE10E940C0843E0BE016F5F7F4F38
:1005B00086E697E00E946E03892B31F06AEB72E0C9
:1005C00081E19CE10E940C0843E0BE016F5F7F4F18
:1005D00081E197E00E946E03892B31F06DEC72E0AF
:1005E00081E19CE10E940C0843E0BE016F5F7F4FF8
:1005F0008CEB96E00E946E03892B31F060EE72E086
:1006000081E19CE10E940C0864E670E080E090E0EB
:100610000E94C107FFEFEF1AFF0A82E00F3F1807A1
:1006200009F08DCF0F900F900F90DF91CF911F9118
:100630000F91FF90EF90DF90CF9008950F931F934D
:1006400060E070E081E19CE10E94EF0700E010E0D3
:100650002CE131E040E050E064E070E08BEB97E0AB
:100660000E9453032CE131E041E050E065E070E08E
:1006700086E697E00E9453032CE131E042E050E02F
:1006800066E070E081E197E00E9453032CE131E0E5
:1006900043E050E067E070E08CEB96E00E9453038B
:1006A0001F910F910895EF92FF920F931F93CF9395
:1006B000DF93EC0179010E940A04F98AE88A1B8B16
:1006C0000A8BFE01EC5AFF4F10821F861E86DF91B7
:1006D000CF911F910F91FF90EF900895AF92BF922D
:1006E000CF92DF92EF92FF920F931F93CF934134FB
:1006F00038F5C42F6B018C017C018EE0E80EF11CF3
:1007000061E070E0C7010E94810D5801E4E5AE0E82
:10071000B11CF5018081882321F0C7010E94C60D1C
:100720000FC04C2F50E0B601C80144960E946E18CD
:10073000F501C083C7010E94C60D80E090E002C0B1
:100740008FEF9FEFCF911F910F91FF90EF90DF9070
:10075000CF90BF90AF900895EC018C01025F1F4FC6
:100760007C0184E5E80EF11C5E01E4E1AE0EB11CF3
:1007700061E070E0C8010E94810DF701D080C801DE
:100780000E94C60DDD20B1F04D2DB501CE010E94B5
:100790000B0561E070E0C8010E94810DF701108235
:1007A000C8010E94C60DEA89FB89309709F3CE0182
:1007B0001995DECF64E670E080E090E00E94C1070A
:1007C000D7CFCF93DF93CDB7DEB7C054D1090FB6E3
:1007D000F894DEBF0FBECDBF8C0140E4BE016F5F59
:1007E0007F4FC8010E94EF0697FDF7CFD8015096C2
:1007F000ED91FC915197309781F3482FBE016F5FC7
:100800007F4FC8011995E9CF60E070E08BE59CE16E
:100810000C94EF070F931F93CF93DF93EC01CB0161
:100820008A017983688361E070E00E949C071F83DE
:100830000E83C8010E94A00C81E090E09D878C8708
:10084000DF91CF911F910F910895CF93DF93EC012A
:100850000E94DF076A837B838C839D83DF91CF9126
:100860000895CF92DF92EF92FF920F931F93CF9351
:10087000DF93EC01F62E0E94DF0728EB3BE0F29EAF
:100880006001F39ED00C11240D2C000CEE08FF0823
:100890000A811B812C813D81C00ED11EE21EF31EF8
:1008A0006C157D058E059F0550F4A7019601261B4A
:1008B000370B480B590BCA01B9010E94D307CA82F2
:1008C000DB82EC82FD82DF91CF911F910F91FF902F
:1008D000EF90DF90CF900895CF93DF93EC0160E02D
:1008E00070E0888199810E94AD0765E0CE010E9489
:1008F000310461E070E0888199810E94AD0765E074
:10090000CE01DF91CF910C943104CF93DF93EC01B2
:1009100061E070E0888199810E94AD0765E0CE01B9
:100920000E94310460E070E0888199810E94AD07E7
:1009300065E0CE01DF91CF910C943104CF92DF922C
:10094000EF92FF920F931F93CF93DF936C01C0E060
:10095000D0E000E010E0E62EF12CC7010C2E01C023
:10096000880F0A94EAF787FF08C00F5F1F4FC60180
:100970000E946C040530110529F4C6010E9485040B
:1009800000E010E02196C830D10539F7DF91CF9112
:100990001F910F91FF90EF90DF90CF9008950F93EC
:1009A0001F93CF93DF938C010E942504C8E0D0E011
:1009B000C8010E948504C8010E946C042197C1F7F8
:1009C000DF91CF911F910F910895EF92FF920F93B6
:1009D0001F93CF93DF938C01C0E0D0E08EE7E82E29
:1009E000F12CC7010C2E01C0880F0A94EAF787FF8B
:1009F00004C0C8010E946C0403C0C8010E948504A1
:100A00002196C830D10569F7DF91CF911F910F91E1
:100A1000FF90EF900895AF92BF92DF92EF92FF9216
:100A20000F931F93CF93DF93EC018B01D42E0E9481
:100A3000CF04CE010E94E50478015801AD0CB11C31
:100A4000EA14FB0439F0F70161917F01CE010E94A5
:100A50009E04F6CF6D2DC8010E945807182F692FEC
:100A6000CE010E949E04612FCE010E949E04CE0101
:100A7000DF91CF911F910F91FF90EF90DF90BF908A
:100A8000AF900C94E504CF92DF92EF92FF920F9318
:100A90001F93CF93DF938C010E9425043AE5C32E68
:100AA000D12CE12C40E8F42ECFEFDFE762E0F80133
:100AB000868197810E942F0D8C179D070CF4EC0105
:100AC000E816F9060CF47C0161E0C8010E943104CB
:100AD000F1E0CF1AD10851F7C7018C1B9D0BC297CB
:100AE0005CF0CE0DDF1DD7FD2196CE019595879543
:100AF000F8019187808702C08FEF9FEFDF91CF9140
:100B00001F910F91FF90EF90DF90CF900895CF93BA
:100B1000DF93EC0162E08E819F810E942F0D28857A
:100B20003985E091A51C8217930764F481E08E0F4C
:100B30008093A51CF0E0EA55F34E8FE5808380E0BA
:100B400090E00BC081E08E0F8093A51CF0E0EA5589
:100B5000F34E8DE2808381E090E0DF91CF910895A4
:100B6000AF92BF92CF92DF92EF92FF920F931F93BB
:100B7000CF93DF93EC010E9487056C0180EFE82E94
:100B8000F12C00E010E0CE010E9487055C018C157D
:100B90009D0519F40F5F1F4F0CC0083011053CF084
:100BA00065E0CE010E94310480E090E00DC000E0DD
:100BB00010E061E0CE010E94310481E0E81AF10802
:100BC000650109F78FEF9FEFDF91CF911F910F9193
:100BD000FF90EF90DF90CF90BF90AF900895CF92AD
:100BE000DF92EF92FF920F931F93CF93DF938C01CD
:100BF000C5E0D0E0E12CF12CC8010E948705E80E89
:100C0000F91E61E0C8010E9431042197A9F785E02F
:100C1000C82ED12CC0E0D0E0C8010E948705C80FC3
:100C2000D91F61E0C8010E94310481E0C81AD108CF
:100C300099F783E0E816F1042CF423976CF48FEF16
:100C40009FEF0CC081E090E0239714F480E090E0E7
:100C500091958195910902C081E090E0DF91CF915B
:100C60001F910F91FF90EF90DF90CF900895CF9359
:100C7000DF93EC01CE010E94EF059C012F5F3F4FF7
:100C800022303105B8F7DF91CF9108950F931F936C
:100C9000CF93DF93EC010E9437068F3F2FEF92072F
:100CA000D9F006E010E0CE010E94EF058F3F2FEF54
:100CB000920791F0892BA9F301501109A1F7CE01F8
:100CC0000E94EF0521E030E0892B11F420E030E0B4
:100CD00088279927821B930BDF91CF911F910F914A
:100CE0000895CF92DF92EF92FF920F931F93CF93CD
:100CF000DF93EC017B01FB01108200E010E080E853
:100D0000C82ED12C8A859B850597A4F0CE010E9420
:100D1000EF058F3FFFEF9F0789F1892B19F41B86A1
:100D20001A8608C0CE010E94EF05892B29F581E0C3
:100D300090E024C0CE010E94EF05009799F0019742
:100D4000D9F48A859B8501969B878A87F701208144
:100D5000C601002E02C0959587950A94E2F7822B72
:100D6000808302C01B861A860F5F1F4F0830110553
:100D700049F680E090E002C08FEF9FEFDF91CF91C6
:100D80001F910F91FF90EF90DF90CF900895EF9219
:100D9000FF920F931F93CF93DF937C01042FFC01ED
:100DA00013861286EB0110E0101781F0BE01C70117
:100DB0000E9471068F3FFFEF9F0751F0019719F4D2
:100DC000812F90E005C01F5F2196EECF8FEF9FEF40
:100DD000DF91CF911F910F91FF90EF900895FF92B7
:100DE0000F931F93CF93DF93EC018B01F42E10929E
:100DF000A51C8C859D85892B09F1CE010E94430598
:100E0000019639F4E091A51CF0E0EA55F34E10820A
:100E10002DC0CE010E94B0058F3F4FEF940739F0EF
:100E2000CE010E9446068F3F2FEF920739F4E091E2
:100E3000A51CF0E0EA55F34E10822EC04F2DB801EC
:100E4000CE010E94C70621E030E08F3F4FEF9407AC
:100E500011F020E030E03D872C87E091A51CF0E008
:100E6000EA55F34E1082823091051CF48FEF9FEF0C
:100E700013C0EC0122976C2FC8010E945807F8019B
:100E8000EC0FFD1F208130E0322F22274181242BDF
:100E90008217930759F7CE01DF91CF911F910F91E0
:100EA000FF90089560E070E086EA9DE10C94EF0702
:100EB000482FDC0180E090E02A2F241B261778F4CD
:100EC0002D91E92FFF27E227EE0FFF1FE150FD4F85
:100ED00020813181982F882782279327EDCF08958D
:100EE000CF92DF92EF92FF92C090BB21D090BC21B5
:100EF000E090BD21F090BE2180E090E00E947C0B4C
:100F0000BC018091BB219091BC21A091BD21B091E9
:100F1000BE21C816D906EA06FB0631F7CB01A0E0D0
:100F2000B0E0BC01CD016C297D298E299F29FF905D
:100F3000EF90DF90CF9008956115710529F0623030
:100F4000710521F462E003C060E001C063E0FC01D0
:100F5000E150FB4F80810C944D0A81509B4FFC0166
:100F600080810C94BB0A81509B4FFC0180810E94C0
:100F7000820A21E030E0892B11F420E030E0C90141
:100F800008959B01AC01A8EEB3E00E944C1822E04A
:100F900096958795779567952A95D1F720E030E06B
:100FA000A9010C94981522E09695879577956795F9
:100FB0002A95D1F720E030E0A9010C9498150E9401
:100FC000700722E0660F771F881F991F2A95D1F7B7
:100FD000089560E070E080EF9DE10C94EF07FC0164
:100FE0007183608308950F931F93CF93DF938C01D8
:100FF000EB01CB010E947718AC01BE01F8018081A2
:1010000091810E94D209CE01DF91CF911F910F9162
:101010000C9477180C94F3070F931F93CF93DF93DF
:10102000EC010E94F3078C0165E475E0CE010E949B
:10103000F307C8010296DF91CF911F910F91089598
:10104000CF93DF93EA01FC01808191810E94D20954
:10105000CE01DF91CF9108954F925F926F927F9270
:101060008F929F92AF92BF92EF92FF920F931F9336
:10107000CF93DF93CDB7DEB7C054D1090FB6F89444
:10108000DEBF0FBECDBF7C01213009F450C068F037
:10109000223009F453C0233009F06DC07F936F9361
:1010A0005F934F9380E595E04FC080E090E0812C06
:1010B000912CA12CB0E8BB2E95018401082E04C010
:1010C00036952795179507950A94D2F7042315238B
:1010D00026233723012B022B032B11F40196ECCF8F
:1010E0009E012F5F3F4FF901412C512C612CA0E84C
:1010F0007A2E8F01021B130B8032910598F5530154
:101100004201082E04C0B694A794979487940A9439
:10111000D2F784229522A622B72289288A288B28F2
:1011200011F4A0E301C0A1E3A1930196E2CF7F9364
:101130006F935F934F9388E495E006C07F936F931E
:101140005F934F938CE495E09F938F93CE0101962C
:101150009F938F930E94C4188C010FB6F894DEBF42
:101160000FBECDBFA801BE016F5F7F4FC7010E94B8
:101170002008C80102C080E090E0C05CDF4F0FB6DD
:10118000F894DEBF0FBECDBFDF91CF911F910F91BD
:10119000FF90EF90BF90AF909F908F907F906F9057
:1011A0005F904F900895CF92DF92EF92FF920F934E
:1011B0001F93CF93DF93CDB7DEB7C054D1090FB6DD
:1011C000F894DEBF0FBECDBF6C017F936F935F932A
:1011D0004F9384E595E09F938F93CE0101967C0118
:1011E0009F938F930E94C4188C01AC01B701C60174
:1011F0000E9420080FB6F894DEBF0FBECDBFC80115
:10120000C05CDF4F0FB6F894DEBF0FBECDBFDF91DD
:10121000CF911F910F91FF90EF90DF90CF900895A5
:10122000223011F40C94D3080C942C08242F423053
:1012300031F4AB01770F660B770B0C941009AB01FF
:1012400060E070E00C942C080F931F93CF93DF9312
:10125000EC010E9416098C0165E475E0CE010E9444
:10126000F307C8010296DF91CF911F910F91089566
:10127000AB01770F660B770B0C94D3080FB6802D5C
:10128000F894807890E008950FB6802D7894807857
:1012900090E00895FF920F93F82E0FB7087FF02A81
:1012A000FFBE0F91FF90089580913A1E90E008953F
:1012B00021E020933A1EFC01EE0FFF1FE35AFA4F84
:1012C0000190F081E02D6681880F991F880F991F8A
:1012D000DC01A55CB14EED91FC91119712968D91B8
:1012E0009C91139719958091AF1E9091B01E892BF8
:1012F00031F00E94490F10923A1E0E94201710925E
:101300003A1E0895EF92FF920F931F93CF93DF93AE
:10131000790182309105E8F5FC01EE0FFF1FEE0F19
:10132000FF1FE55CF14EF182E08213830283880F98
:10133000991FFC01E35AFA4FC081D18119821882AA
:1013400086E08A83DB01CA0180589B47A14EBF4FCC
:10135000E3E0880F991FAA1FBB1FEA95D1F79A01F6
:10136000AB01F4E0220F331F441F551FFA95D1F74C
:10137000BC01CD010E942A18215031093D832C83E4
:10138000EF2811F088E901C088E0898380E090E0CF
:1013900002C08FEF9FEFDF91CF911F910F91FF90D0
:1013A000EF900895CF93DF93FB01460F571F880FEF
:1013B000991FDC01A35ABA4FE417F50749F0CD9104
:1013C000DC911197888185FFFDCF81918E83F4CFC9
:1013D000DF91CF9108951F920F920FB60F921124B3
:1013E0000BB60F922F933F934F935F936F937F931F
:1013F0008F939F93AF93BF93EF93FF9380E090E021
:101400000E945809FF91EF91BF91AF919F918F91E9
:101410007F916F915F914F913F912F910F900BBEF4
:101420000F900FBE0F901F9018951F920F920FB63E
:101430000F9211240BB60F922F933F934F935F930C
:101440006F937F938F939F93AF93BF93EF93FF938C
:1014500081E090E00E945809FF91EF91BF91AF9118
:101460009F918F917F916F915F914F913F912F91BC
:101470000F900BBE0F900FBE0F901F901895282F46
:1014800022952F7033E0239FC0011124273010F4E0
:101490008296089583519F4F0895CF93DF93982F9D
:1014A0009F70C1E0D0E001C0CC0F9A95EAF762309E
:1014B000A9F0633069F0611120C00E943F0AFC016D
:1014C0002291C0952C232083FC012081C22311C0CE
:1014D0000E943F0AFC018291C82B0BC00E943F0A68
:1014E000FC0122913C2F309523232083FC01208195
:1014F000C22BC08380E090E002C08FEF9FEFDF91AE
:10150000CF910895CF93C82F0E943F0A0297FC0104
:101510002081CF7081E090E002C0880F991FCA95AA
:10152000E2F730E082239323CF910895CF93C82F21
:101530000E943F0AFC014081CF7021E030E001C0F1
:10154000220FCA95EAF7242B2083CF910895CF93D9
:10155000C82F0E943F0AFC014081CF7021E030E09B
:1015600002C0220F331FCA95E2F72095309524233D
:101570002083CF910895672B11F00C94960A0C9458
:10158000A70A21E020933A1E2CE0AC01249FC00161
:10159000259F900D1124DC01AA5FBD4F1296ED919D
:1015A000FC9113972081AB014F5F5F4F81E090E08A
:1015B00001C0880F4A95EAF78095822380831696AA
:1015C000ED91FC91179718968D919C91199719950B
:1015D0008091AF1E9091B01E892B31F00E94490F6F
:1015E00010923A1E0E94201710923A1E08958F9270
:1015F0009F92AF92BF92CF92DF92EF92FF920F93A2
:101600001F93DC010297D8F4E1E6F5E090E0C12CED
:1016100084E2D82E84EFE82EF12C46015701019088
:1016200004C0B694A794979487940A94D2F79F5FC6
:1016300084169506A606B70629F0953071F78FEF48
:101640009FEF1EC08CE08A9FF0018B9FF00D11244C
:10165000EA5FFD4FA081B1811C9211961C921197F7
:1016600012961C92129715961C921E92149737830D
:10167000268311870087928711969C9380E090E0E3
:101680001F910F91FF90EF90DF90CF90BF90AF90A0
:101690009F908F900895633071055CF52CE0289F32
:1016A000F001299FF00D1124EA5FFD4F80819181A7
:1016B000DB011496AA0FBB1FA80FB91F11965C93EC
:1016C0004E93A481B5812C916F5F7F4F81E090E0B4
:1016D00001C0880F6A95EAF7982F909592239C9302
:1016E0000280F381E02D9081892B808381E090E05E
:1016F00008958FEF9FEF08952CE0AC01249FC00167
:10170000259F900D1124FC01EA5FFD4F0190F081AF
:10171000E02D8481958108951F920F920FB60F924C
:1017200011240BB60F922F933F934F935F936F93B8
:101730007F938F939F93AF93BF93EF93FF9360E05B
:1017400070E080E090E00E94C10AFF91EF91BF91AC
:10175000AF919F918F917F916F915F914F913F9149
:101760002F910F900BBE0F900FBE0F901F901895EA
:101770001F920F920FB60F9211240BB60F922F9358
:101780003F934F935F936F937F938F939F93AF9309
:10179000BF93EF93FF9361E070E080E090E00E94E0
:1017A000C10AFF91EF91BF91AF919F918F917F916E
:1017B0006F915F914F913F912F910F900BBE0F90C2
:1017C0000FBE0F901F9018951F920F920FB60F9299
:1017D00011240BB60F922F933F934F935F936F9308
:1017E0007F938F939F93AF93BF93EF93FF9362E0A9
:1017F00070E080E090E00E94C10AFF91EF91BF91FC
:10180000AF919F918F917F916F915F914F913F9198
:101810002F910F900BBE0F900FBE0F901F90189539
:101820001F920F920FB60F9211240BB60F922F93A7
:101830003F934F935F936F937F938F939F93AF9358
:10184000BF93EF93FF9360E070E081E090E00E942F
:10185000C10AFF91EF91BF91AF919F918F917F91BD
:101860006F915F914F913F912F910F900BBE0F9011
:101870000FBE0F901F9018951F920F920FB60F92E8
:1018800011240BB60F922F933F934F935F936F9357
:101890007F938F939F93AF93BF93EF93FF9361E0F9
:1018A00070E081E090E00E94C10AFF91EF91BF914A
:1018B000AF919F918F917F916F915F914F913F91E8
:1018C0002F910F900BBE0F900FBE0F901F90189589
:1018D0001F920F920FB60F9211240BB60F922F93F7
:1018E0003F934F935F936F937F938F939F93AF93A8
:1018F000BF93EF93FF9362E070E081E090E00E947D
:10190000C10AFF91EF91BF91AF919F918F917F910C
:101910006F915F914F913F912F910F900BBE0F9060
:101920000FBE0F901F90189561E070E083E49EE178
:101930000E94810DEAE7F0E080818068808308954D
:101940008F929F92AF92BF92CF92DF92EF92FF92CF
:10195000CF93DF938031910508F074C0EC010E94B1
:10196000940CC830D105A0F420917E0081E090E075
:1019700001C0880FCA95EAF7922F982B90937E00AA
:1019800090B38095982390BB91B3892381BB18C0F5
:1019900020917D00289781E090E001C0880FCA95D2
:1019A000EAF7922F982B90937D00909107018095F4
:1019B000982390930701909108018923809308014F
:1019C000C12CD12C7601C394C1E0D0E0812C94E2EB
:1019D000992E94EFA92EB12C9E010C2C02C0220F3F
:1019E000331F0A94E2F7032E000C440B550BC5017C
:1019F000B4010E942A1821343D404340510530F47F
:101A000080917A00C82AC0927A000BC03FEFC31AB7
:101A1000D30AE30AF30A88E0C816D104E104F1040A
:101A2000D9F680917C00806480937C0080917A005C
:101A30008F7780937A0083E49EE10E94C60D80E058
:101A400090E002C08FEF9FEFDF91CF91FF90EF907A
:101A5000DF90CF90BF90AF909F908F900895CF93DD
:101A6000DF936230F1F5EC010E94940C80917B00D1
:101A7000C830D10558F4877F80937B0080917C002B
:101A8000807F80937C0080917C000BC08860809375
:101A90007B0080917C00807F80937C0080917C0023
:101AA000C850C82BC0937C0080917A0080648093DA
:101AB0007A0080917A0086FDFCCFC0917800D091A9
:101AC000790080917A00806180937A0080917A0019
:101AD0008F7780937A0083E49EE10E94C60DCE0149
:101AE00002C08FEF9FEFDF91CF910895E1E6F0E024
:101AF00080E8808310820E9415160E94EA170C94D9
:101B00004409EF92FF920F931F93CF93DF93EC0161
:101B10008B010E943E097C0188819981892B41F4C7
:101B20008FEF9FEF99838883C7010E944A091FC0E6
:101B3000012B01F100916B1E10916C1E62E0C80137
:101B40000E94460E88819981019641F4C80106964B
:101B500099838883F8011782168204C0B801CE01E8
:101B60000E94640FC7010E944A090E94B21681E0D8
:101B700090E005C0C7010E944A0980E090E0DF9133
:101B8000CF911F910F91FF90EF900895EF92FF92E8
:101B90000F931F93CF93DF938C010E943E097C012A
:101BA000D801ED91FC91309739F0EF3FBFEFFB0783
:101BB00061F4F80111821082C701DF91CF911F916A
:101BC0000F91FF90EF900C944A0980819181D80188
:101BD0008D939C93EF0126976BE0CE010E94460EF9
:101BE000F80180819181892B21F48FEF9FEF918300
:101BF0008083CB81D0E0C7010E944A09CE01DF91EA
:101C0000CF911F910F91FF90EF900C94D70E1092EF
:101C1000B01E1092AF1EA0916B1EB0916C1E209151
:101C2000451E3091461E80E090E020FD04C03695B0
:101C300027950196FACF880F991FFC01E75BF14EBB
:101C40000190F081E02D0190F081E02D3697AE17E4
:101C5000BF07C9F0109741F012968C9112978A3005
:101C600019F48BE012968C938AE0828384819581AB
:101C700090936A1E8093691EF0936C1EE0936B1E16
:101C800081E090E0089580E090E008950F931F9325
:101C9000CF93DF93FC0182816A30E0F18A3008F053
:101CA00080C09F012A5F3F4F838190E0880F991F7A
:101CB000DC01A75BB14ECD91DC911197209751F0DB
:101CC00048815981578346830D90BC91A02D2D9357
:101CD0003C9302C037832683DC01A75BB14E2D9372
:101CE0003C9381E090E0038002C0880F991F0A9422
:101CF000E2F7092E000CAA0BBB0B0091451E1091B8
:101D0000461E2091471E3091481E802B912BA22BFE
:101D1000B32B3FC08A3008F444C0A381B0E0AA0FBF
:101D2000BB1FA75BB14ECD91DC911197209769F055
:101D300088819981C817D90719F41D921C9205C092
:101D4000DC018D919C91998388832381A22FB0E03F
:101D5000AA0FBB1FA75BB14E8D919C91892B09F5F2
:101D600081E090E002C0880F991F2A95E2F78095E4
:101D70009095092E000CAA0BBB0B0091451E1091EB
:101D8000461E2091471E3091481E80239123A22396
:101D9000B3238093451E9093461EA093471EB09395
:101DA000481E6283DF91CF911F910F910895E091BA
:101DB0006B1EF0916C1E22812A3028F0238130E0C6
:101DC0008217930768F40E945409892B39F081E047
:101DD00090E09093B01E8093AF1E08950C94B216BD
:101DE00008950E943E09E091691EF0916A1EEE0F6F
:101DF000FF1FE359F14E118210828091B11E909124
:101E0000B21E01979093B21E8093B11E60E0809144
:101E10006B1E90916C1E0E94460E10926C1E1092CA
:101E20006B1E0E9465160E94B31786E695E09F938D
:101E30008F930E9480180E9407010F900F9080E0FE
:101E400090E008950E940316FDCF0E943E09C090C5
:101E50001E02D0901F02E12CF12C02E21FE02CE0C8
:101E600030E04FE060E870E083EB9EE10E94860F77
:101E7000C0902002D090210203E11FE02CE030E06E
:101E800047E060E872E083E39FE10E94860F0E94D2
:101E900065160E943E09E0916B1EF0916C1E228136
:101EA0002A3070F0E381F0E0EE0FFF1FE75BF14EA8
:101EB000A081B181109721F02D913C913183208335
:101EC0000E944A090C94B216FB0122812A3030F09C
:101ED00061E770E080EB95E00E9444106381AF0100
:101EE0004A5F5F4FDC012D913C912115310541F096
:101EF000D901169713967C91671710F0C901F2CF9C
:101F000037832683FC015183408308952F923F92AB
:101F10004F925F926F927F928F929F92AF92BF92F9
:101F2000CF92DF92EF92FF920F931F93CF93DF93A5
:101F300000D01F92CDB7DEB7403198F54B013AE1A2
:101F4000831A9108DC01A80DB91DBC83AB83FC0189
:101F500023FF09C0AB81BC81EA17FB0730F4F18392
:101F6000E0833296F7CF91838083160137015801C1
:101F70002A8349832B017C010E943E096C01EFE614
:101F8000FEE101E010E081919191892B61F00F5FFA
:101F90001F4F01321105B9F7C6010E944A098FEBA4
:101FA0005BC084EE59C0F801EE0FFF1FE359F14EFC
:101FB0008B819C8191838083DC0115961C930E9309
:101FC00014979401A701B301C5010E943016EB815B
:101FD000FC8191838083F58AE48A518E408E378A12
:101FE000268A2981238312821782168211861086FF
:101FF0001386128615861486178616868FEF9FEF36
:10200000918B808B138A128A8091B11E9091B21E9F
:1020100001969093B21E8093B11E3A8130FF06C0A4
:1020200061E08B819C810E94460E11C06BE08B8128
:102030009C810E94460EFA81F2FD09C0C6010E94F1
:102040004A092981822F90E00E94D70E03C0C60161
:102050000E944A09C80101C09FEF0F900F900F9096
:102060000F90DF91CF911F910F91FF90EF90DF9034
:10207000CF90BF90AF909F908F907F906F905F9028
:102080004F903F902F9008957F936F939F938F93DE
:102090008EEB95E09F938F930E94801869E076E025
:1020A00083E00E9454100895EB012091B3213091F8
:1020B000B421232B71F521E030E03093B42120933B
:1020C000B321833091F40EB6202D0DB6802D90E013
:1020D000922B9F938F9388EC95E09F938F930E9410
:1020E00080180F900F900F900F90DF93CF938FED8C
:1020F00095E09F938F930E9480188BEF95E09F93BC
:102100008F930E9480180F900F900F900F900F9058
:102110000F900E943E090E9453100E940016CF9219
:10212000DF92EF92FF92C090BB21D090BC21E09053
:10213000BD21F090BE2180E090E00E947C0BBC01AC
:102140008091BB219091BC21A091BD21B091BE2175
:10215000C816D906EA06FB0631F7CB01A0E0B0E0CD
:10216000BC01CD016C297D298E299F29FF90EF901C
:10217000DF90CF9008958F929F92AF92BF92CF92AF
:10218000DF92EF92FF920F931F93CF93DF938C0117
:10219000EB010E948F104B015C01C090BF21D090D9
:1021A000C021E090C121F090C2210E948F106815DB
:1021B00079058A059B0568F3F80160837183828342
:1021C0009383C882D982EA82FB82DF91CF911F91EB
:1021D0000F91FF90EF90DF90CF90BF90AF909F90C6
:1021E0008F9008952091C3213091C421232B39F47D
:1021F000AB0160E070E080E090E00C944B0B089540
:102200000F931F93CF93DF93DC01E091B521F09101
:10221000B621C5EBD1E2309741F1068117812085C7
:10222000318516964D915D916D917C9119970417AA
:1022300015072607370728F4EF010190F081E02DFC
:10224000EACF041715072607370779F402811381AF
:102250002481358112964D915D916D917C911597F8
:10226000401751076207730738F71196FC93EE93F6
:10227000B983A883DF91CF911F910F9108950F9398
:102280001F93CF93DF938091BB219091BC21A091AC
:10229000BD21B091BE2111968093BB219093BC21AA
:1022A000A093BD21B093BE218091BB219091BC2110
:1022B000A091BD21B091BE21892B8A2B8B2B99F443
:1022C0008091BF219091C021A091C121B091C221E4
:1022D0000196A11DB11D8093BF219093C021A093B1
:1022E000C121B093C221E091B721F091B821F093C0
:1022F000BA21E093B9211092B8211092B721A09190
:10230000B521B091B621ED0180E090E0209781F1F8
:102310004091BF215091C0216091C1217091C22193
:102320000E811F8128853985401751076207730781
:1023300038F4D093B621C093B5210097F1F46DC065
:102340000091BB211091BC212091BD213091BE2173
:102350004A815B816C817D81442755274017510755
:102360006207730731F7CE010990D881C02DCECF17
:102370001092B6211092B521E0CFEC01198218829B
:10238000309709F446C0109791F00281138124819F
:10239000358112964D915D916D917C911597401705
:1023A00051076207730718F49A2F8B2F02C09E2FD4
:1023B0008F2FC92F282FD22F0190F081E02D0D9063
:1023C000BC91A02D309719F4B983A8831DC0109734
:1023D00019F4F983E88318C00281138124813581BF
:1023E00012964D915D916D917C9115974017510713
:1023F0006207730718F43A2F2B2F02C03E2F2F2F9E
:1024000038832983C32FD7CF9093B9218093BA21E2
:1024100004C0B093BA21A093B921DF91CF911F914D
:102420000F9108958F929F92AF92BF92CF92DF92B9
:10243000EF92FF9281E090E09093C4218093C321BA
:102440008091B9219091BA21892B49F40E943F11C2
:1024500080E090E00E947C0B0196D1F3B4C080E054
:1024600090E00E947C0B6C01E12CF12C3AC0AA2474
:10247000BB2488159905AA05BB0598F4E091B921FC
:10248000F091BA2182809380A480B58080E090E0B2
:102490000E947C0BA0E0B0E08C159D05AE05BF0549
:1024A00030F7A091B921B091BA218D919C911197EB
:1024B0009093BA218093B92112961D921D921D927C
:1024C0001C92159716961D921D921D921C9219979B
:1024D0001A96ED91FC911B971C968D919C911D97DE
:1024E0001995E091B921F091BA21309789F480E0F3
:1024F00090E00E947C0BA0E0B0E04496A11DB11DCD
:102500008C159D05AE05BF0598F50E943F1124C0AE
:1025100082809380A480B58080E090E00E947C0B54
:10252000A0E0B0E08C159D05AE05BF0508F4A6CF70
:10253000B501A4016627772784179507A607B70773
:1025400008F09CCF481B590B6A0B7B0B443151059B
:102550006105710560F692CF80E090E00E947C0BEF
:10256000A0E0B0E0C816D906EA06FB06A8F32BC027
:10257000E091B921F091BA213097B9F0828093802F
:10258000A480B58084E1881A9108A108B1080E944E
:102590008F10DC01CB014496A11DB11D8816990650
:1025A000AA06BB0608F49DCF2FC080E090E00E94F1
:1025B0007C0B4C01A12CB12C8C149D04AE04BF04E7
:1025C00030F40E943F11C12CD12C76018ACFD50165
:1025D000C4014496A11DB11DAA27BB2788159905E2
:1025E000AA05BB0560F480E090E00E947C0BA0E0AF
:1025F000B0E088159905AA05BB05A8F7E2CF8824A5
:102600008A94982CA12CB12C1092C4211092C32131
:10261000C501B401FF90EF90DF90CF90BF90AF90D5
:102620009F908F900C94F210FC01A091B921B09171
:10263000BA21A817B90719F0A9EBB1E21DC0ED91B5
:10264000FC91F093BA21E093B921309759F082813F
:102650009381A481B581BC01CD01645171098109C7
:10266000910904C06FEF7FEF80E090E00C94F210CE
:10267000E817F907A9F0DC018D919C91119700975B
:10268000B9F7A7EBB1E28D919C911197009729F0D2
:10269000E817F90729F0DC01F6CFA5EBB1E209C094
:1026A000808191818D939C930895E817F907C1F378
:1026B000DC018D919C9111970097B9F708950F93C4
:1026C0001F9300E010E022E132E140E950ED63E0C9
:1026D00070E080E090E00E94F70A6FEF7FEFCB019F
:1026E0001F910F910C94F2104F925F926F927F9214
:1026F0008F929F92AF92BF92CF92DF92EF92FF9212
:102700000F931F93CF93DF93EC016A017B010E942B
:102710008F104B015C0119821882D701C6018819FC
:102720009909AA09BB098997A105B105F0F4EE241E
:10273000FF2480E090E00E947C0BA0E0B0E0C8168F
:10274000D906EA06FB06A8F380E090E00E947C0B25
:10275000A0E0B0E08C159D05AE05BF05A8F3EA85A5
:10276000FB858C859D851995A0C00E943E098C0132
:102770008A819B81AC81BD81892B8A2B8B2B09F0AF
:1027800090C08E819F81A885B985892B8A2B8B2B40
:1027900009F087C0CA82DB82EC82FD824090BF21B3
:1027A0005090C0216090C1217090C221C701B60134
:1027B0006451710981099109681579058A059B059C
:1027C00028F42FEF421A520A620A720A4E825F827E
:1027D000688679864090BF215090C0216090C121C9
:1027E0007090C2212E813F8148855985421653063B
:1027F0006406750688F02091BB213091BC21409180
:10280000BD215091BE212B013C01442455242415A7
:1028100035054605570521F0CE010E9400113DC047
:10282000AA24BB2486169706A806B90618F4A9EBB5
:10283000B1E221C0A7EBB1E2ED91FC911197309785
:1028400059F04281538164817581C416D506E6062C
:10285000F70610F0DF01F0CFF983E883CD93DC9326
:102860001CC082809380A480B580C814D904EA0477
:10287000FB0430F0DF01ED91FC911197309789F75F
:10288000F983E883CD93DC932091B9213091BA216B
:10289000C217D30711F40E94F210C8010E944A091E
:1028A00004C0CE010E94141375CF80E090E0DF9148
:1028B000CF911F910F91FF90EF90DF90CF90BF903D
:1028C000AF909F908F907F906F905F904F90089502
:1028D0000F931F93CF93DF93EC010E943E098C016D
:1028E0008A819B81AC81BD81892B8A2B8B2B79F4CA
:1028F0008E819F81A885B985892B8A2B8B2B39F4F2
:10290000C801DF91CF911F910F910C944A09CE011C
:102910000E941413F5CF8F929F92AF92BF92CF92E5
:10292000DF92EF92FF92CF93DF93FC0122853385F4
:10293000232B09F447C06A017B01EC010E94681453
:10294000F8E2CF16D104E104F10438F580E090E01C
:102950000E947C0B4C01A12CB12C80E090E00E94E5
:102960007C0BA0E0B0E088199909AA09BB09AA2745
:10297000BB278C159D05AE05BF0578F3EA85FB8561
:102980008C859D85DF91CF91FF90EF90DF90CF9068
:10299000BF90AF909F908F9019940E948F10AB01C1
:1029A000BC014C0D5D1D6E1D7F1DCE01DF91CF91D1
:1029B000FF90EF90DF90CF90BF90AF909F908F905F
:1029C0000C947413DF91CF91FF90EF90DF90CF9034
:1029D000BF90AF909F908F9008954F925F926F92AB
:1029E0007F928F929F92AF92BF92EF92FF920F933E
:1029F0001F93CF93DF93011511052105310581F454
:102A0000DF91CF911F910F91FF90EF90BF90AF900A
:102A10009F908F907F906F905F904F900C948B144D
:102A2000280139014A015B01EC010E943E097C0149
:102A30008A819B81AC81BD81892B8A2B8B2B09F0EC
:102A400044C08E819F81A885B985892B8A2B8B2BC9
:102A5000E1F5BE016A5F7F4FCE0102960E94BB1076
:102A60008A819B81AC81BD81880D991DAA1DBB1DEA
:102A70008A839B83AC83BD830E811F812885398522
:102A8000040D151D261D371D88159905AA05BB05C2
:102A900020F40F5F1F4F2F4F3F4F0E831F83288758
:102AA0003987CE010E940011C701DF91CF911F919C
:102AB0000F91FF90EF90BF90AF909F908F907F907D
:102AC0006F905F904F900C944A09CE010E941413AE
:102AD000C0CF0C94C60D8F929F92AF92BF92CF92AF
:102AE000DF92EF92FF926B017C0180E090E00E9408
:102AF0007C0B4C01A12CB12CEE24FF2480E090E053
:102B00000E947C0BA0E0B0E088199909AA09BB09D2
:102B1000AA27BB278C159D05AE05BF0578F3FF904E
:102B2000EF90DF90CF90BF90AF909F908F900895DF
:102B30004F925F926F927F928F929F92AF92BF92CD
:102B4000EF92FF920F931F93CF93DF93CDB7DEB732
:102B500060970FB6F894DEBF0FBECDBF4B015C018E
:102B600029013A010E945409892B79F04528462809
:102B7000472831F06CE370E08BE196E00E9444104E
:102B8000C501B4010E946B1526C0188A1F8689E60C
:102B900095E19C878B877E018FE0E80EF11CFE8615
:102BA000ED861F82188619861A861B821C821D825A
:102BB0001E8261E070E0C7010E94810D93018201D5
:102BC000B501A401CE0101960E94ED1461E070E010
:102BD000C7010E94810D60960FB6F894DEBF0FBE4C
:102BE000CDBFDF91CF911F910F91FF90EF90BF90DC
:102BF000AF909F908F907F906F905F904F900895CF
:102C00000E943E09FFCF0895CF93DF931F92CDB767
:102C1000DEB721E030E0AE014F5F5F4F0E948217C8
:102C200089810F90DF91CF910895A8950FB6F89400
:102C3000A895809160008861809360001092600088
:102C40000FBE0E94DA170C9411181F920F920FB644
:102C50000F9211245F9A60E271E080E00E945410AC
:102C6000240F351FF90131974FEA408331974EEF1A
:102C7000408341EF5EE03197408331975083319735
:102C800010823197808331979083319710823197EA
:102C90001082319780E880833197108231971082BB
:102CA00031971082C90183971292E817F907E1F76B
:102CB000F901B4976083319770838AE182938F5FC3
:102CC0008032E1F7C9018C9708950E94070E0E9497
:102CD00044098DB79EB72091040230910502821BF2
:102CE000930B90930102809300028091C5219091F3
:102CF000C621892B41F480910202909103029093A6
:102D0000C6218093C521A0916B1EB0916C1ECD9100
:102D1000CDBFDD91DEBFFF91EF91DF91CF91BF91EC
:102D2000AF919F918F917F916F915F914F913F9163
:102D30002F911F910F91FF90EF90DF90CF90BF9058
:102D4000AF909F908F907F906F905F904F903F904B
:102D50002F901F900F900CBE0F900BBE0F900FBEC8
:102D60000F9008950E945409892B09F062C00F92B8
:102D70000FB6F8940F920BB60F920CB60F921F92EB
:102D800011242F923F924F925F926F927F928F9277
:102D90009F92AF92BF92CF92DF92EF92FF920F93EA
:102DA0001F932F933F934F935F936F937F938F93D3
:102DB0009F93AF93BF93CF93DF93EF93FF93A09134
:102DC0006B1EB0916C1E0DB60D920EB60D920E9448
:102DD000070EA0916B1EB0916C1ECD91CDBFDD9101
:102DE000DEBFFF91EF91DF91CF91BF91AF919F91A6
:102DF0008F917F916F915F914F913F912F911F9193
:102E00000F91FF90EF90DF90CF90BF90AF909F9089
:102E10008F907F906F905F904F903F902F901F907A
:102E20000F900CBE0F900BBE0F900FBE0F90089529
:102E3000089581E090E09093B01E8093AF1E0895B6
:102E40000F920FB6F8940F920BB60F920CB60F922A
:102E50001F9211242F923F924F925F926F927F9216
:102E60008F929F92AF92BF92CF92DF92EF92FF929A
:102E70000F931F932F933F934F935F936F937F9382
:102E80008F939F93AF93BF93CF93DF93EF93FF9372
:102E9000A0916B1EB0916C1E0DB60D920EB60D92E8
:102EA0000E94070EA0916B1EB0916C1ECD91CDBFFC
:102EB000DD91DEBFFF91EF91DF91CF91BF91AF9197
:102EC0009F918F917F916F915F914F913F912F9142
:102ED0001F910F91FF90EF90DF90CF90BF90AF9038
:102EE0009F908F907F906F905F904F903F902F902A
:102EF0001F900F900CBE0F900BBE0F900FBE0F9047
:102F000018950895CF92DF92EF92FF926B017C01AA
:102F1000C20ED31EE11CF11CE1E0CE16E0E1DE069C
:102F2000E104F10438F4DA01A20FB31FFA01641BC3
:102F3000750B10C060E270E08FE296E00E944410D2
:102F4000F999FECFCB018E0F9F1F92BD81BDF89ADC
:102F500080B58193EA17FB0799F7C901FF90EF90BD
:102F6000DF90CF9008950C945F13CF93DF931F925F
:102F7000CDB7DEB761E070E0CE0101960E94011886
:102F80008981082E000C990B0F90DF91CF91089545
:102F9000CF93DF931F92CDB7DEB7898361E070E0F6
:102FA000CE0101960E94041880E090E00F90DF911E
:102FB000CF9108950E94F017E9ECF1E280E392E0EE
:102FC0009383828382E292E09183808381E596E01D
:102FD0000C94941863E087E10E944D0A5F9808956D
:102FE0000F931F9300E010E020E030E040E855E24E
:102FF00060E070E080E090E00E9482091F910F91F4
:10300000089583EC9FEF0895CF93DF93EB01AB011D
:10301000BC0180E090E00E94D209CE01DF91CF9107
:10302000089580E090E00C94191884B1876084B909
:103030000895892B31F06DE270E083E596E00E94FF
:1030400044108091640084608093640080E090E08C
:103050000C941518A1E21A2EAA1BBB1BFD010DC072
:10306000AA1FBB1FEE1FFF1FA217B307E407F50738
:1030700020F0A21BB30BE40BF50B661F771F881F14
:10308000991F1A9469F760957095809590959B01AA
:10309000AC01BD01CF0108950E945F18A59F900D5E
:1030A000B49F900DA49F800D911D11240895EE0FE3
:1030B000FF1F881F8BBF0790F691E02D1994A29FE8
:1030C000B001B39FC001A39F700D811D1124911DFC
:1030D000B29F700D811D1124911D0895FB01DC012B
:1030E00002C001900D9241505040D8F70895FC0164
:1030F00001900020E9F7809590958E0F9F1F08950D
:10310000CF93DF93CDB7DEB7AE014A5F5F4FFA01D1
:1031100061917191AF018091CB219091CC210E945E
:10312000F318DF91CF9108950F931F93CF93DF93FF
:10313000E091CB21F091CC21238121FF1BC08C0198
:10314000D0E0C0E0F80181918F016091CB217091B6
:10315000CC21DB011896ED91FC911997882331F071
:103160001995892B79F3DFEFCFEFECCF8AE0199532
:10317000892B19F08FEF9FEF02C08D2F9C2FDF91CD
:10318000CF911F910F9108950F931F93CF93DF93CA
:10319000CDB7DEB72E970FB6F894DEBF0FBECDBF0A
:1031A0000E891F8986E08C831A8309838FEF9FE73E
:1031B0009E838D83AE01465E5F4F688D798DCE0113
:1031C00001960E94F318EF81F885E00FF11F10823D
:1031D0002E960FB6F894DEBF0FBECDBFDF91CF9114
:1031E0001F910F9108952F923F924F925F926F928D
:1031F0007F928F929F92AF92BF92CF92DF92EF9287
:10320000FF920F931F93CF93DF93CDB7DEB72B972A
:103210000FB6F894DEBF0FBECDBF6C017B018A01F3
:10322000FC0117821682838181FFCCC1CE010196F9
:103230003C01F6019381F70193FD859193FF819104
:103240007F01882309F4BAC1853239F493FD859151
:1032500093FF81917F01853229F4B60190E00E94AD
:10326000131BE7CF912C212C312CFFE1F315D8F063
:103270008B3279F038F4803279F08332A1F4232D47
:1032800020611DC08D3261F0803369F4232D2160EF
:1032900016C0832D8260382EE32DE4603E2E2AC0B6
:1032A000F32DF8601DC037FC2DC020ED280F2A300B
:1032B00040F08E32B9F436FC81C1232D2064322EC9
:1032C00019C036FE06C08AE0989E200D1124922E69
:1032D00011C0EAE02E9E200D1124222EF32DF06263
:1032E0003F2E08C08C3621F4832D8068382E02C012
:1032F000883641F4F70193FD859193FF81917F0119
:103300008111B3CF982F9F7D9554933028F40C5F93
:103310001F4F9FE399830DC0833631F0833771F0DF
:10332000833509F059C021C0F801808189830E5F7F
:103330001F4F88248394912C530113C02801F2E07D
:103340004F0E511CF801A080B18036FE03C0692DDC
:1033500070E002C06FEF7FEFC5010E94081B4C01B7
:103360008201F32DFF773F2E16C0280122E0420E86
:10337000511CF801A080B18036FE03C0692D70E0B9
:1033800002C06FEF7FEFC5010E94FD1A4C01F32DC3
:10339000F0683F2E820133FC1BC0822D90E088161E
:1033A0009906B0F4B60180E290E00E94131B2A94C3
:1033B000F4CFF50137FC859137FE81915F01B601AD
:1033C00090E00E94131B21102A9421E0821A910898
:1033D0008114910471F7E8C0843611F0893641F503
:1033E000F80137FE07C060817181828193810C5F93
:1033F0001F4F08C060817181072E000C880B990B4C
:103400000E5F1F4FF32DFF763F2E97FF09C090955B
:103410008095709561957F4F8F4F9F4FF0683F2E3D
:103420002AE030E0A3010E944F1B882E861845C079
:10343000853731F4232D2F7EB22E2AE030E025C0CF
:10344000932D997FB92E8F36C1F018F4883579F015
:10345000B5C0803719F0883721F0B0C0E92FE0619E
:10346000BE2EB4FE0DC0FB2DF460BF2E09C034FE8D
:103470000AC0292F2660B22E06C028E030E005C021
:1034800020E130E002C020E132E0F801B7FE07C0E1
:1034900060817181828193810C5F1F4F06C06081C2
:1034A000718180E090E00E5F1F4FA3010E944F1BCF
:1034B000882E8618FB2DFF773F2E36FE0DC0232D5C
:1034C0002E7FA22E891458F434FE0BC032FC09C0A2
:1034D000832D8E7EA82E05C0B82CA32C03C0B82C3B
:1034E00001C0B92CA4FE0FC0FE01E80DF11D8081C2
:1034F000803321F49A2D997EA92E09C0A2FE06C020
:10350000B394B39404C08A2D867809F0B394A3FCD5
:1035100011C0A0FE06C0B21488F4280C922C9B188F
:103520000EC0B21460F4B60180E290E00E94131B5A
:10353000B394F7CFB21418F42B1802C0982C212C96
:10354000A4FE10C0B60180E390E00E94131BA2FE0F
:1035500017C0A1FC03C088E790E002C088E590E0B6
:10356000B6010CC08A2D867859F0A1FE02C08BE20C
:1035700001C080E2A7FC8DE2B60190E00E94131B1F
:10358000891438F4B60180E390E00E94131B9A94EA
:10359000F7CF8A94F301E80DF11D8081B60190E028
:1035A0000E94131B8110F5CF222009F442CEB601F0
:1035B00080E290E00E94131B2A94F6CFF6018681E8
:1035C000978102C08FEF9FEF2B960FB6F894DEBF66
:1035D0000FBECDBFDF91CF911F910F91FF90EF9064
:1035E000DF90CF90BF90AF909F908F907F906F9023
:1035F0005F904F903F902F900895FC01059061508F
:1036000070400110D8F7809590958E0F9F1F0895F8
:10361000FC016150704001900110D8F780959095A1
:103620008E0F9F1F08950F931F93CF93DF93FB017E
:10363000238121FD03C08FEF9FEF2CC022FF16C016
:1036400046815781248135814217530744F4A08174
:10365000B1819D012F5F3F4F318320838C93268161
:1036600037812F5F3F4F3783268314C08B01EC01D6
:10367000FB010084F185E02D1995892BE1F6D80135
:1036800016968D919C911797019617969C938E9301
:103690001697CE01DF91CF911F910F910895FA01F6
:1036A000AA27283051F1203181F1E8946F936E7F81
:1036B0006E5F7F4F8F4F9F4FAF4FB1E03ED0B4E072
:1036C0003CD0670F781F891F9A1FA11D680F791FB3
:1036D0008A1F911DA11D6A0F711D811D911DA11DC4
:1036E00020D009F468943F912AE0269F11243019D4
:1036F000305D3193DEF6CF010895462F4770405D6F
:103700004193B3E00FD0C9F7F6CF462F4F70405D1D
:103710004A3318F0495D31FD4052419302D0A9F778
:10372000EACFB4E0A6959795879577956795BA9572
:10373000C9F700976105710508959B01AC010A2E38
:1037400006945795479537952795BA95C9F7620F0F
:0E375000731F841F951FA01D0895F894FFCFCE
:10375E000000D121200080006F0036000000000024
:10376E000000A00072003900000000000000A60555
:10377E00AB0500000001000000000000B5170000BE
:10378E000000000200000000C81700000000476F94
:10379E00743A203078002C20307800476F743A202D
:1037AE00456D707479206D6573736167650044654E
:1037BE00766963652049443A203078007478310088
:1037CE007278310074783200727832007478330077
:1037DE0072783300747834007278340073657475BF
:1037EE0070282920646F6E650050696E200020706D
:1037FE00726573736564005458206F6E206C696631
:10380E006931206661696C6564005458206F6E20C2
:10381E006C69666932206661696C65640054582073
:10382E006F6E206C69666933206661696C65640031
:10383E005458206F6E206C69666934206661696C1D
:10384E006564000A014230080009000A000B0000FE
:10385E00002110422063308440A550C660E77008F6
:10386E008129914AA16BB18CC1ADD1CEE1EFF1317D
:10387E0012100273325222B5529442F772D6623946
:10388E009318837BB35AA3BDD39CC3FFF3DEE362CD
:10389E0024433420040114E664C774A44485546A96
:1038AE00A54BB528850995EEE5CFF5ACC58DD5535D
:1038BE0036722611163006D776F6669556B4465BE6
:1038CE00B77AA719973887DFF7FEE79DD7BCC7C42D
:1038DE0048E5588668A7784008611802282338CC36
:1038EE00C9EDD98EE9AFF9488969990AA92BB9F5BD
:1038FE005AD44AB77A966A711A500A333A122AFD86
:10390E00DBDCCBBFFB9EEB799B588B3BBB1AABA68C
:10391E006C877CE44CC55C222C033C600C411CAED5
:10392E00ED8FFDECCDCDDD2AAD0BBD688D499D979C
:10393E007EB66ED55EF44E133E322E511E700E9F25
:10394E00FFBEEFDDDFFCCF1BBF3AAF599F788F88EC
:10395E0091A981CAB1EBA10CD12DC14EF16FE180BD
:10396E0010A100C230E3200450254046706760B9B4
:10397E00839893FBA3DAB33DC31CD37FE35EF3B10D
:10398E00029012F322D2323542145277625672EA04
:10399E00B5CBA5A89589856EF54FE52CD50DC5E25D
:1039AE0034C324A01481046674476424540544DB94
:1039BE00A7FAB79987B8975FE77EF71DC73CD7D3AD
:1039CE0026F2369106B01657667676154634564C64
:1039DE00D96DC90EF92FE9C899E9898AB9ABA944FD
:1039EE0058654806782768C018E1088238A3287DF4
:1039FE00CB5CDB3FEB1EFBF98BD89BBBAB9ABB754D
:103A0E004A545A376A167AF10AD01AB32A923A2EC3
:103A1E00FD0FED6CDD4DCDAABD8BADE89DC98D269C
:103A2E007C076C645C454CA23C832CE01CC10C1FD3
:103A3E00EF3EFF5DCF7CDF9BAFBABFD98FF89F17EC
:103A4E006E367E554E745E932EB23ED10EF01E40F3
:103A5E00414445654373747576141516178180714C
:103A6E007033323130000102030405060727262584
:103A7E00242322214037626160A7A6A5A4A3A2A198
:103A8E00A0131211105051525354555657909192F3
:103A9E0093949596970D0A00256C6F00256C750012
:103AAE00256C7800256C6900252E2A6600C000C89A
:103ABE0000000306080A6D61696E28293A205468D1
:103ACE0069732069732052494F542120285665721C
:103ADE0073696F6E3A20323031392E31302D646574
:103AEE0076656C2D3834332D6739636631642D4815
:103AFE00454144290A0069646C65006D61696E0078
:103B0E00636F72652F7468726561642E630025732E
:103B1E003A2575203D3E2000537461636B20506F33
:103B2E00696E7465723A203078253034780A002A2E
:103B3E002A2A2052494F54206B65726E656C207094
:103B4E00616E69633A0A25730A0A002A2A2A2068D6
:103B5E00616C7465642E0A0A004641494C45442046
:103B6E00415353455254494F4E2E007379732F785B
:103B7E0074696D65722F7874696D65722E6300635A
:103B8E0070752F61746D6567615F636F6D6D6F6EBC
:103B9E002F7065726970682F656570726F6D2E6318
:103BAE00000C006370752F61746D6567615F636FE4
:103BBE006D6D6F6E2F7065726970682F7370692EE0
:023BCE00630092
:0400000300000206F1
:00000001FF
